8=FIX.4.4|9=139|35=D|34=1|49=BUY_SIDE_8XKV|56=SELL_SIDE_YXTZ|52=20251017-22:18:03.105|11=DBMMGSM2UA|55=SPY|54=2|38=3550|40=2|59=0|60=20251017-22:18:03.105|10=104|8=FIX.4.4|9=116|35=X|34=1|49=SELL_SIDE_WH3P|56=BUY_SIDE_ZZTB|52=20251017-22:18:03.155|268=1|269=0|279=2|55=META|270=266.89|271=4339|10=057|8=FIX.4.4|9=118|35=X|34=1|49=SELL_SIDE_ZE6W|56=BUY_SIDE_NXG1|52=20251017-22:18:03.205|268=1|269=0|279=2|55=USDJPY|270=353.30|271=4792|10=191|8=FIX.4.4|9=154|35=G|34=1|49=BUY_SIDE_KU3Q|56=SELL_SIDE_M9E7|52=20251017-22:18:03.255|11=B758W9QQEI|41=DKUFM28QD9|55=TSLA|54=2|38=2870|60=20251017-22:18:03.255|44=441.16|10=147|8=FIX.4.4|9=193|35=8|34=2|49=SELL_SIDE_YXTZ|56=BUY_SIDE_8XKV|52=20251017-22:18:03.305|11=JD3WYENWQN|55=TSLA|39=0|150=0|14=1605|151=1982|17=19QKOVZM0K4U|37=CB8M1T8UZW|60=20251017-22:18:03.305|31=156.11|32=3606|10=108|8=FIX.4.4|9=154|35=G|34=2|49=BUY_SIDE_KU3Q|56=SELL_SIDE_M9E7|52=20251017-22:18:03.355|11=YJRPYF3AVF|41=R57YIC6YM2|55=AMZN|54=1|38=2478|60=20251017-22:18:03.355|44=396.45|10=246|8=FIX.4.4|9=192|35=8|34=2|49=SELL_SIDE_ZE6W|56=BUY_SIDE_NXG1|52=20251017-22:18:03.405|11=VRGJ6C95SB|55=TSLA|39=0|150=0|14=329|151=1908|17=53BLMKPOC23Z|37=TUB1WGKFAT|60=20251017-22:18:03.405|31=430.15|32=1286|10=159|8=FIX.4.4|9=142|35=D|34=3|49=BUY_SIDE_NXG1|56=SELL_SIDE_ZE6W|52=20251017-22:18:03.455|11=K9ZPD1O0V9|55=EURUSD|54=2|38=1600|40=1|59=0|60=20251017-22:18:03.455|10=229|8=FIX.4.4|9=116|35=X|34=3|49=SELL_SIDE_YXTZ|56=BUY_SIDE_8XKV|52=20251017-22:18:03.505|268=1|269=2|279=0|55=NQZ5|270=140.15|271=3111|10=068|8=FIX.4.4|9=150|35=D|34=4|49=BUY_SIDE_8XKV|56=SELL_SIDE_YXTZ|52=20251017-22:18:03.555|11=PD89HZR79S|55=TSLA|54=1|38=3404|40=3|59=4|60=20251017-22:18:03.555|44=188.93|10=126|8=FIX.4.4|9=151|35=D|34=2|49=BUY_SIDE_ZZTB|56=SELL_SIDE_WH3P|52=20251017-22:18:03.605|11=DFDX10Z4LA|55=USDJPY|54=1|38=1562|40=1|59=4|60=20251017-22:18:03.605|44=98.59|10=181|8=FIX.4.4|9=192|35=8|34=4|49=SELL_SIDE_ZE6W|56=BUY_SIDE_NXG1|52=20251017-22:18:03.655|11=FO6L1B178T|55=ESZ5|39=0|150=0|14=211|151=1153|17=5XUBXVNG8BDZ|37=7ZCZAC13FU|60=20251017-22:18:03.655|31=309.28|32=4600|10=124|8=FIX.4.4|9=140|35=D|34=5|49=BUY_SIDE_NXG1|56=SELL_SIDE_ZE6W|52=20251017-22:18:03.705|11=XXCJJGO0KI|55=NVDA|54=2|38=3175|40=4|59=1|60=20251017-22:18:03.705|10=111|8=FIX.4.4|9=174|35=8|34=5|49=SELL_SIDE_YXTZ|56=BUY_SIDE_8XKV|52=20251017-22:18:03.755|11=NK4R8FR4QJ|55=AMZN|39=2|150=2|14=838|151=3127|17=JKJCADPWHTME|37=617YZFMLXN|60=20251017-22:18:03.755|10=009|8=FIX.4.4|9=134|35=W|34=6|49=SELL_SIDE_YXTZ|56=BUY_SIDE_8XKV|52=20251017-22:18:03.805|55=JPM|268=2|269=0|270=54.71|271=4564|269=1|270=161.88|271=2665|10=156|8=FIX.4.4|9=136|35=F|34=3|49=BUY_SIDE_ZZTB|56=SELL_SIDE_WH3P|52=20251017-22:18:03.855|11=Q0UVF8R8RC|41=UDI155VKY7|55=AAPL|54=2|60=20251017-22:18:03.855|10=164|8=FIX.4.4|9=79|35=2|34=7|49=BUY_SIDE_8XKV|56=SELL_SIDE_YXTZ|52=20251017-22:18:03.905|7=1|16=6|10=219|8=FIX.4.4|9=118|35=X|34=3|49=SELL_SIDE_M9E7|56=BUY_SIDE_KU3Q|52=20251017-22:18:03.955|268=1|269=0|279=2|55=USDJPY|270=339.75|271=3350|10=171|8=FIX.4.4|9=156|35=G|34=4|49=BUY_SIDE_KU3Q|56=SELL_SIDE_M9E7|52=20251017-22:18:04.005|11=IZYYLEQVIQ|41=R7QGGLIW0I|55=GBPUSD|54=1|38=1261|60=20251017-22:18:04.005|44=350.95|10=186|8=FIX.4.4|9=136|35=W|34=4|49=SELL_SIDE_WH3P|56=BUY_SIDE_ZZTB|52=20251017-22:18:04.055|55=BTCUSD|268=2|269=0|270=13.66|271=2491|269=1|270=51.16|271=3189|10=023|8=FIX.4.4|9=118|35=X|34=5|49=SELL_SIDE_M9E7|56=BUY_SIDE_KU3Q|52=20251017-22:18:04.105|268=1|269=0|279=0|55=ETHUSD|270=121.03|271=1265|10=124|8=FIX.4.4|9=134|35=W|34=6|49=SELL_SIDE_ZE6W|56=BUY_SIDE_NXG1|52=20251017-22:18:04.155|55=AAPL|268=2|269=0|270=368.96|271=463|269=1|270=454.23|271=385|10=092|8=FIX.4.4|9=83|35=1|34=8|49=BUY_SIDE_8XKV|56=SELL_SIDE_YXTZ|52=20251017-22:18:04.205|112=UJVPTTVT|10=184|8=FIX.4.4|9=115|35=X|34=6|49=SELL_SIDE_M9E7|56=BUY_SIDE_KU3Q|52=20251017-22:18:04.255|268=1|269=1|279=2|55=META|270=20.69|271=3250|10=179|8=FIX.4.4|9=195|35=8|34=9|49=SELL_SIDE_YXTZ|56=BUY_SIDE_8XKV|52=20251017-22:18:04.305|11=ZO2EOA7LZR|55=ETHUSD|39=2|150=2|14=1048|151=1394|17=2LEA8QU2BSO7|37=4ZHWDAO6Q3|60=20251017-22:18:04.305|31=222.04|32=4271|10=185|8=FIX.4.4|9=157|35=G|34=10|49=BUY_SIDE_8XKV|56=SELL_SIDE_YXTZ|52=20251017-22:18:04.355|11=U3Z9CP48L4|41=RTK48TZ839|55=GBPUSD|54=2|38=3571|60=20251017-22:18:04.355|44=173.28|10=189|8=FIX.4.4|9=144|35=G|34=11|49=BUY_SIDE_8XKV|56=SELL_SIDE_YXTZ|52=20251017-22:18:04.405|11=YVG9POXQK2|41=OVG5TEC9HN|55=JPM|54=1|38=4152|60=20251017-22:18:04.405|10=109|8=FIX.4.4|9=135|35=W|34=7|49=SELL_SIDE_M9E7|56=BUY_SIDE_KU3Q|52=20251017-22:18:04.455|55=AMZN|268=2|269=0|270=436.46|271=297|269=1|270=405.12|271=1147|10=120|8=FIX.4.4|9=83|35=1|34=7|49=BUY_SIDE_NXG1|56=SELL_SIDE_ZE6W|52=20251017-22:18:04.505|112=AW957DME|10=240|8=FIX.4.4|9=118|35=X|34=5|49=SELL_SIDE_WH3P|56=BUY_SIDE_ZZTB|52=20251017-22:18:04.555|268=1|269=0|279=1|55=BTCUSD|270=271.35|271=2233|10=203|8=FIX.4.4|9=70|35=0|34=6|49=BUY_SIDE_ZZTB|56=SELL_SIDE_WH3P|52=20251017-22:18:04.605|10=040|8=FIX.4.4|9=191|35=8|34=8|49=SELL_SIDE_M9E7|56=BUY_SIDE_KU3Q|52=20251017-22:18:04.655|11=G2SHCCMRRF|55=TSLA|39=2|150=2|14=611|151=930|17=KG7IXREKR70Q|37=1B1MR5TQYH|60=20251017-22:18:04.655|31=434.83|32=4303|10=123|8=FIX.4.4|9=118|35=X|34=7|49=SELL_SIDE_WH3P|56=BUY_SIDE_ZZTB|52=20251017-22:18:04.705|268=1|269=0|279=1|55=GBPUSD|270=264.33|271=4071|10=204|8=FIX.4.4|9=149|35=D|34=9|49=BUY_SIDE_KU3Q|56=SELL_SIDE_M9E7|52=20251017-22:18:04.755|11=R2I6SXDU5E|55=BAC|54=1|38=2549|40=3|59=3|60=20251017-22:18:04.755|44=429.01|10=185|8=FIX.4.4|9=177|35=8|34=8|49=SELL_SIDE_WH3P|56=BUY_SIDE_ZZTB|52=20251017-22:18:04.805|11=9LVPWU8AX2|55=GBPUSD|39=0|150=0|14=3807|151=1368|17=40OIOWQNJT94|37=ZDQSUBK7UH|60=20251017-22:18:04.805|10=178|8=FIX.4.4|9=90|35=5|34=12|49=BUY_SIDE_8XKV|56=SELL_SIDE_YXTZ|52=20251017-22:18:04.855|58=Session closing|10=037|8=FIX.4.4|9=139|35=F|34=13|49=BUY_SIDE_8XKV|56=SELL_SIDE_YXTZ|52=20251017-22:18:04.905|11=6N5M9X0KON|41=PB8WL5VHTH|55=ETHUSD|54=2|60=20251017-22:18:04.905|10=185|8=FIX.4.4|9=119|35=X|34=10|49=SELL_SIDE_M9E7|56=BUY_SIDE_KU3Q|52=20251017-22:18:04.955|268=1|269=1|279=1|55=USDJPY|270=212.28|271=2489|10=219|8=FIX.4.4|9=114|35=X|34=8|49=SELL_SIDE_ZE6W|56=BUY_SIDE_NXG1|52=20251017-22:18:05.005|268=1|269=1|279=1|55=SPY|270=216.26|271=200|10=158|8=FIX.4.4|9=145|35=G|34=11|49=BUY_SIDE_KU3Q|56=SELL_SIDE_M9E7|52=20251017-22:18:05.055|11=0YW4E5QG4V|41=6WDO20G7GF|55=AMZN|54=1|38=3910|60=20251017-22:18:05.055|10=213|8=FIX.4.4|9=156|35=G|34=12|49=BUY_SIDE_KU3Q|56=SELL_SIDE_M9E7|52=20251017-22:18:05.105|11=2UPUS9FU4O|41=BAIGWMR7WQ|55=GBPUSD|54=2|38=4470|60=20251017-22:18:05.105|44=92.04|10=134|8=FIX.4.4|9=142|35=D|34=9|49=BUY_SIDE_ZZTB|56=SELL_SIDE_WH3P|52=20251017-22:18:05.155|11=18TBF51PW9|55=BTCUSD|54=2|38=2756|40=2|59=1|60=20251017-22:18:05.155|10=225|8=FIX.4.4|9=149|35=D|34=9|49=BUY_SIDE_NXG1|56=SELL_SIDE_ZE6W|52=20251017-22:18:05.205|11=LOU8H8G0FI|55=META|54=2|38=298|40=2|59=3|60=20251017-22:18:05.205|44=207.94|10=238|8=FIX.4.4|9=116|35=X|34=10|49=SELL_SIDE_ZE6W|56=BUY_SIDE_NXG1|52=20251017-22:18:05.255|268=1|269=2|279=2|55=CLX5|270=60.59|271=4590|10=005|8=FIX.4.4|9=147|35=G|34=11|49=BUY_SIDE_NXG1|56=SELL_SIDE_ZE6W|52=20251017-22:18:05.305|11=OUXTP4UFCE|41=02FB6H9XK2|55=BTCUSD|54=2|38=3355|60=20251017-22:18:05.305|10=186|8=FIX.4.4|9=137|35=W|34=14|49=SELL_SIDE_YXTZ|56=BUY_SIDE_8XKV|52=20251017-22:18:05.355|55=NVDA|268=2|269=0|270=414.42|271=1920|269=1|270=174.36|271=4982|10=058|8=FIX.4.4|9=71|35=0|34=15|49=BUY_SIDE_8XKV|56=SELL_SIDE_YXTZ|52=20251017-22:18:05.405|10=124|8=FIX.4.4|9=117|35=X|34=12|49=SELL_SIDE_ZE6W|56=BUY_SIDE_NXG1|52=20251017-22:18:05.455|268=1|269=0|279=0|55=NFLX|270=426.27|271=1183|10=078|8=FIX.4.4|9=176|35=8|34=13|49=SELL_SIDE_M9E7|56=BUY_SIDE_KU3Q|52=20251017-22:18:05.505|11=5WBFIOAPYC|55=META|39=0|150=0|14=1070|151=2908|17=9KPR5N8DRU44|37=BZ2UGQSEES|60=20251017-22:18:05.505|10=198|8=FIX.4.4|9=178|35=8|34=14|49=SELL_SIDE_M9E7|56=BUY_SIDE_KU3Q|52=20251017-22:18:05.555|11=RCYN7MMCHP|55=BTCUSD|39=2|150=2|14=1072|151=3742|17=QQVLM295IFJG|37=G13D8ZEX6A|60=20251017-22:18:05.555|10=074|8=FIX.4.4|9=150|35=D|34=15|49=BUY_SIDE_KU3Q|56=SELL_SIDE_M9E7|52=20251017-22:18:05.605|11=DYO1U7Q8QU|55=NVDA|54=2|38=331|40=2|59=3|60=20251017-22:18:05.605|44=163.97|10=027|8=FIX.4.4|9=153|35=D|34=13|49=BUY_SIDE_NXG1|56=SELL_SIDE_ZE6W|52=20251017-22:18:05.655|11=E8HCLIYV9W|55=GBPUSD|54=1|38=4875|40=2|59=4|60=20251017-22:18:05.655|44=476.08|10=042|8=FIX.4.4|9=155|35=G|34=16|49=BUY_SIDE_KU3Q|56=SELL_SIDE_M9E7|52=20251017-22:18:05.705|11=TYLPVJXRNT|41=MVIU831E6P|55=NVDA|54=2|38=1493|60=20251017-22:18:05.705|44=110.80|10=069|8=FIX.4.4|9=140|35=D|34=10|49=BUY_SIDE_ZZTB|56=SELL_SIDE_WH3P|52=20251017-22:18:05.755|11=I0N0E1N2K3|55=MSFT|54=1|38=199|40=4|59=1|60=20251017-22:18:05.755|10=056|8=FIX.4.4|9=136|35=F|34=17|49=BUY_SIDE_KU3Q|56=SELL_SIDE_M9E7|52=20251017-22:18:05.805|11=IRPLVI7USS|41=5XWQBRW6R5|55=SPY|54=1|60=20251017-22:18:05.805|10=216|8=FIX.4.4|9=192|35=8|34=14|49=SELL_SIDE_ZE6W|56=BUY_SIDE_NXG1|52=20251017-22:18:05.855|11=I9EPGPUV1W|55=SPY|39=0|150=0|14=847|151=3006|17=TATWQ4CWOELQ|37=SJPQSNF8FT|60=20251017-22:18:05.855|31=101.26|32=3569|10=083|8=FIX.4.4|9=117|35=X|34=16|49=SELL_SIDE_YXTZ|56=BUY_SIDE_8XKV|52=20251017-22:18:05.905|268=1|269=2|279=1|55=MSFT|270=258.80|271=3201|10=152|8=FIX.4.4|9=71|35=0|34=15|49=BUY_SIDE_NXG1|56=SELL_SIDE_ZE6W|52=20251017-22:18:05.955|10=064|8=FIX.4.4|9=137|35=W|34=16|49=SELL_SIDE_ZE6W|56=BUY_SIDE_NXG1|52=20251017-22:18:06.005|55=MSFT|268=2|269=0|270=122.19|271=1314|269=1|270=111.36|271=3685|10=243|8=FIX.4.4|9=143|35=D|34=11|49=BUY_SIDE_ZZTB|56=SELL_SIDE_WH3P|52=20251017-22:18:06.055|11=77K0R9VH4L|55=USDJPY|54=1|38=4357|40=2|59=1|60=20251017-22:18:06.055|10=042|8=FIX.4.4|9=176|35=8|34=12|49=SELL_SIDE_WH3P|56=BUY_SIDE_ZZTB|52=20251017-22:18:06.105|11=RET0FGMF1U|55=GOOG|39=2|150=2|14=3081|151=3238|17=U96N3G26ZVLZ|37=OEC4ALCQIM|60=20251017-22:18:06.105|10=228|8=FIX.4.4|9=154|35=G|34=17|49=BUY_SIDE_8XKV|56=SELL_SIDE_YXTZ|52=20251017-22:18:06.155|11=SV8MJLIBGP|41=KG65FOPK0E|55=CLX5|54=2|38=1626|60=20251017-22:18:06.155|44=75.88|10=045|8=FIX.4.4|9=84|35=1|34=18|49=BUY_SIDE_8XKV|56=SELL_SIDE_YXTZ|52=20251017-22:18:06.205|112=LXMRYK07|10=163|8=FIX.4.4|9=115|35=X|34=18|49=SELL_SIDE_M9E7|56=BUY_SIDE_KU3Q|52=20251017-22:18:06.255|268=1|269=0|279=0|55=BAC|270=150.71|271=804|10=131|8=FIX.4.4|9=116|35=X|34=17|49=SELL_SIDE_ZE6W|56=BUY_SIDE_NXG1|52=20251017-22:18:06.305|268=1|269=1|279=2|55=SPY|270=213.43|271=2493|10=017|8=FIX.4.4|9=116|35=X|34=13|49=SELL_SIDE_WH3P|56=BUY_SIDE_ZZTB|52=20251017-22:18:06.355|268=1|269=0|279=0|55=GOOG|270=194.58|271=783|10=063|8=FIX.4.4|9=140|35=D|34=19|49=BUY_SIDE_8XKV|56=SELL_SIDE_YXTZ|52=20251017-22:18:06.405|11=SN75RMGBPI|55=NQZ5|54=1|38=785|40=4|59=0|60=20251017-22:18:06.405|10=174|8=FIX.4.4|9=117|35=X|34=19|49=SELL_SIDE_M9E7|56=BUY_SIDE_KU3Q|52=20251017-22:18:06.455|268=1|269=2|279=0|55=NQZ5|270=134.39|271=2734|10=044|8=FIX.4.4|9=84|35=1|34=14|49=BUY_SIDE_ZZTB|56=SELL_SIDE_WH3P|52=20251017-22:18:06.505|112=IKYCE2KQ|10=115|8=FIX.4.4|9=153|35=G|34=15|49=BUY_SIDE_ZZTB|56=SELL_SIDE_WH3P|52=20251017-22:18:06.555|11=LHS6FTKQ88|41=8OX943APSN|55=ESZ5|54=1|38=2211|60=20251017-22:18:06.555|44=6.70|10=188|8=FIX.4.4|9=151|35=D|34=20|49=BUY_SIDE_8XKV|56=SELL_SIDE_YXTZ|52=20251017-22:18:06.605|11=WSW25V88WQ|55=NFLX|54=1|38=4872|40=2|59=3|60=20251017-22:18:06.605|44=378.46|10=208|8=FIX.4.4|9=141|35=D|34=21|49=BUY_SIDE_8XKV|56=SELL_SIDE_YXTZ|52=20251017-22:18:06.655|11=W9AU5W39RP|55=MSFT|54=2|38=4052|40=3|59=0|60=20251017-22:18:06.655|10=219|8=FIX.4.4|9=178|35=8|34=22|49=SELL_SIDE_YXTZ|56=BUY_SIDE_8XKV|52=20251017-22:18:06.705|11=YYIT86C8JP|55=BTCUSD|39=2|150=2|14=1623|151=3310|17=7MPO3WJ5EYYN|37=CW7SN1KTR9|60=20251017-22:18:06.705|10=234|8=FIX.4.4|9=141|35=D|34=18|49=BUY_SIDE_NXG1|56=SELL_SIDE_ZE6W|52=20251017-22:18:06.755|11=XTCPYN2OWA|55=AAPL|54=2|38=4596|40=4|59=1|60=20251017-22:18:06.755|10=207|8=FIX.4.4|9=150|35=D|34=16|49=BUY_SIDE_ZZTB|56=SELL_SIDE_WH3P|52=20251017-22:18:06.805|11=OCY1Y4UF6R|55=ESZ5|54=2|38=754|40=2|59=3|60=20251017-22:18:06.805|44=473.24|10=093|8=FIX.4.4|9=116|35=X|34=23|49=SELL_SIDE_YXTZ|56=BUY_SIDE_8XKV|52=20251017-22:18:06.855|268=1|269=2|279=1|55=BAC|270=317.26|271=2102|10=033|8=FIX.4.4|9=138|35=W|34=17|49=SELL_SIDE_WH3P|56=BUY_SIDE_ZZTB|52=20251017-22:18:06.905|55=USDJPY|268=2|269=0|270=142.77|271=438|269=1|270=403.24|271=3004|10=147|8=FIX.4.4|9=89|35=A|34=24|49=BUY_SIDE_8XKV|56=SELL_SIDE_YXTZ|52=20251017-22:18:06.955|98=0|108=30|141=Y|10=231|8=FIX.4.4|9=84|35=1|34=20|49=BUY_SIDE_KU3Q|56=SELL_SIDE_M9E7|52=20251017-22:18:07.005|112=LHGJ13FE|10=247|8=FIX.4.4|9=71|35=0|34=21|49=BUY_SIDE_KU3Q|56=SELL_SIDE_M9E7|52=20251017-22:18:07.055|10=018|8=FIX.4.4|9=155|35=G|34=19|49=BUY_SIDE_NXG1|56=SELL_SIDE_ZE6W|52=20251017-22:18:07.105|11=IW98E0F1RS|41=FN5URZ0OM2|55=CLX5|54=2|38=4480|60=20251017-22:18:07.105|44=392.58|10=244|8=FIX.4.4|9=141|35=D|34=18|49=BUY_SIDE_ZZTB|56=SELL_SIDE_WH3P|52=20251017-22:18:07.155|11=Y7EQ5WX7KJ|55=AMZN|54=1|38=1105|40=4|59=0|60=20251017-22:18:07.155|10=195|8=FIX.4.4|9=140|35=D|34=20|49=BUY_SIDE_NXG1|56=SELL_SIDE_ZE6W|52=20251017-22:18:07.205|11=3XE4CHGZ2C|55=JPM|54=2|38=4628|40=2|59=0|60=20251017-22:18:07.205|10=029|8=FIX.4.4|9=133|35=W|34=19|49=SELL_SIDE_WH3P|56=BUY_SIDE_ZZTB|52=20251017-22:18:07.255|55=BAC|268=2|269=0|270=29.77|271=851|269=1|270=49.77|271=1594|10=051|8=FIX.4.4|9=71|35=0|34=21|49=BUY_SIDE_NXG1|56=SELL_SIDE_ZE6W|52=20251017-22:18:07.305|10=052|8=FIX.4.4|9=90|35=5|34=20|49=BUY_SIDE_ZZTB|56=SELL_SIDE_WH3P|52=20251017-22:18:07.355|58=Session closing|10=254|8=FIX.4.4|9=154|35=G|34=22|49=BUY_SIDE_KU3Q|56=SELL_SIDE_M9E7|52=20251017-22:18:07.405|11=LDBJTO5JVL|41=G556438BQ3|55=GCZ5|54=2|38=556|60=20251017-22:18:07.405|44=185.32|10=086|8=FIX.4.4|9=140|35=D|34=23|49=BUY_SIDE_KU3Q|56=SELL_SIDE_M9E7|52=20251017-22:18:07.455|11=DHWWQX8CQ7|55=META|54=1|38=541|40=1|59=1|60=20251017-22:18:07.455|10=080|8=FIX.4.4|9=71|35=0|34=25|49=BUY_SIDE_8XKV|56=SELL_SIDE_YXTZ|52=20251017-22:18:07.505|10=128|8=FIX.4.4|9=117|35=X|34=24|49=SELL_SIDE_M9E7|56=BUY_SIDE_KU3Q|52=20251017-22:18:07.555|268=1|269=1|279=2|55=NQZ5|270=281.20|271=3585|10=041|8=FIX.4.4|9=117|35=X|34=26|49=SELL_SIDE_YXTZ|56=BUY_SIDE_8XKV|52=20251017-22:18:07.605|268=1|269=0|279=2|55=MSFT|270=236.17|271=2641|10=154|8=FIX.4.4|9=155|35=G|34=27|49=BUY_SIDE_8XKV|56=SELL_SIDE_YXTZ|52=20251017-22:18:07.655|11=HZINOAB76D|41=56A1MFV2DH|55=CLX5|54=1|38=2739|60=20251017-22:18:07.655|44=122.72|10=026|8=FIX.4.4|9=117|35=X|34=22|49=SELL_SIDE_ZE6W|56=BUY_SIDE_NXG1|52=20251017-22:18:07.705|268=1|269=1|279=2|55=NFLX|270=273.08|271=2582|10=085|8=FIX.4.4|9=196|35=8|34=25|49=SELL_SIDE_M9E7|56=BUY_SIDE_KU3Q|52=20251017-22:18:07.755|11=HQA13J6VVY|55=BTCUSD|39=2|150=2|14=1186|151=2333|17=X6CUADN8Q9BI|37=UJ6UQPELHA|60=20251017-22:18:07.755|31=136.14|32=2307|10=179|8=FIX.4.4|9=137|35=W|34=23|49=SELL_SIDE_ZE6W|56=BUY_SIDE_NXG1|52=20251017-22:18:07.805|55=GCZ5|268=2|269=0|270=216.80|271=4237|269=1|270=378.60|271=3639|10=237|8=FIX.4.4|9=193|35=8|34=28|49=SELL_SIDE_YXTZ|56=BUY_SIDE_8XKV|52=20251017-22:18:07.855|11=TGA4AD2E43|55=GCZ5|39=2|150=2|14=2920|151=1425|17=2F4HX02YU7IO|37=KYADG1Y51J|60=20251017-22:18:07.855|31=174.89|32=855|10=175|8=FIX.4.4|9=71|35=0|34=26|49=BUY_SIDE_KU3Q|56=SELL_SIDE_M9E7|52=20251017-22:18:07.905|10=027|8=FIX.4.4|9=137|35=F|34=21|49=BUY_SIDE_ZZTB|56=SELL_SIDE_WH3P|52=20251017-22:18:07.955|11=J0AGKXBZEF|41=6PH3Z50LMI|55=GOOG|54=1|60=20251017-22:18:07.955|10=227|8=FIX.4.4|9=191|35=8|34=29|49=SELL_SIDE_YXTZ|56=BUY_SIDE_8XKV|52=20251017-22:18:08.005|11=ZEO95LTRFA|55=GOOG|39=1|150=1|14=547|151=286|17=TISKDE0ADH3C|37=9U695M7PF2|60=20251017-22:18:08.005|31=90.05|32=1791|10=129|8=FIX.4.4|9=194|35=8|34=27|49=SELL_SIDE_M9E7|56=BUY_SIDE_KU3Q|52=20251017-22:18:08.055|11=S7OPM4L1BK|55=AMZN|39=2|150=2|14=1939|151=3744|17=9AL9U2QECCDY|37=81AJZTH2HD|60=20251017-22:18:08.055|31=353.99|32=1503|10=221|8=FIX.4.4|9=142|35=D|34=24|49=BUY_SIDE_NXG1|56=SELL_SIDE_ZE6W|52=20251017-22:18:08.105|11=MCNVN7FETR|55=GBPUSD|54=2|38=861|40=2|59=0|60=20251017-22:18:08.105|10=017|8=FIX.4.4|9=71|35=0|34=22|49=BUY_SIDE_ZZTB|56=SELL_SIDE_WH3P|52=20251017-22:18:08.155|10=091|8=FIX.4.4|9=149|35=D|34=25|49=BUY_SIDE_NXG1|56=SELL_SIDE_ZE6W|52=20251017-22:18:08.205|11=M1F20560I7|55=AAPL|54=1|38=65|40=1|59=3|60=20251017-22:18:08.205|44=267.07|10=114|8=FIX.4.4|9=71|35=0|34=30|49=BUY_SIDE_8XKV|56=SELL_SIDE_YXTZ|52=20251017-22:18:08.255|10=127|8=FIX.4.4|9=140|35=D|34=31|49=BUY_SIDE_8XKV|56=SELL_SIDE_YXTZ|52=20251017-22:18:08.305|11=2BI9XJQVTH|55=MSFT|54=2|38=439|40=3|59=1|60=20251017-22:18:08.305|10=192|8=FIX.4.4|9=133|35=W|34=28|49=SELL_SIDE_M9E7|56=BUY_SIDE_KU3Q|52=20251017-22:18:08.355|55=BAC|268=2|269=0|270=26.98|271=3959|269=1|270=63.84|271=712|10=236|8=FIX.4.4|9=194|35=8|34=23|49=SELL_SIDE_WH3P|56=BUY_SIDE_ZZTB|52=20251017-22:18:08.405|11=PFVF94IGAS|55=NVDA|39=0|150=0|14=1297|151=2965|17=SI62O1TC4S71|37=XNQMIDLXDB|60=20251017-22:18:08.405|31=285.84|32=3498|10=071|8=FIX.4.4|9=151|35=D|34=26|49=BUY_SIDE_NXG1|56=SELL_SIDE_ZE6W|52=20251017-22:18:08.455|11=06UZWXA3R0|55=NVDA|54=1|38=3125|40=1|59=3|60=20251017-22:18:08.455|44=284.25|10=093|8=FIX.4.4|9=141|35=D|34=27|49=BUY_SIDE_NXG1|56=SELL_SIDE_ZE6W|52=20251017-22:18:08.505|11=ADIK99ZIQO|55=GCZ5|54=2|38=1263|40=1|59=1|60=20251017-22:18:08.505|10=128|8=FIX.4.4|9=90|35=5|34=28|49=BUY_SIDE_NXG1|56=SELL_SIDE_ZE6W|52=20251017-22:18:08.555|58=Session closing|10=231|8=FIX.4.4|9=140|35=D|34=29|49=BUY_SIDE_NXG1|56=SELL_SIDE_ZE6W|52=20251017-22:18:08.605|11=A14Q9LCZ5H|55=BAC|54=2|38=2947|40=3|59=0|60=20251017-22:18:08.605|10=003|8=FIX.4.4|9=195|35=8|34=32|49=SELL_SIDE_YXTZ|56=BUY_SIDE_8XKV|52=20251017-22:18:08.655|11=2ADO19EDJW|55=USDJPY|39=0|150=0|14=3141|151=757|17=RT41O4DXF6XT|37=SCXGI5EAXE|60=20251017-22:18:08.655|31=424.14|32=1867|10=223|8=FIX.4.4|9=140|35=D|34=24|49=BUY_SIDE_ZZTB|56=SELL_SIDE_WH3P|52=20251017-22:18:08.705|11=2ERSLZ9V6V|55=NQZ5|54=2|38=125|40=1|59=1|60=20251017-22:18:08.705|10=146|8=FIX.4.4|9=71|35=0|34=25|49=BUY_SIDE_ZZTB|56=SELL_SIDE_WH3P|52=20251017-22:18:08.755|10=100|8=FIX.4.4|9=136|35=F|34=26|49=BUY_SIDE_ZZTB|56=SELL_SIDE_WH3P|52=20251017-22:18:08.805|11=58KHYJ4EWZ|41=P9H3TGYSQP|55=JPM|54=2|60=20251017-22:18:08.805|10=228|8=FIX.4.4|9=194|35=8|34=29|49=SELL_SIDE_M9E7|56=BUY_SIDE_KU3Q|52=20251017-22:18:08.855|11=3L17OEN1KM|55=AMZN|39=2|150=2|14=3567|151=1030|17=F30T1D6850C9|37=SNEBEY3YS8|60=20251017-22:18:08.855|31=175.24|32=2725|10=114|8=FIX.4.4|9=193|35=8|34=30|49=SELL_SIDE_M9E7|56=BUY_SIDE_KU3Q|52=20251017-22:18:08.905|11=0APV6B41JY|55=SPY|39=0|150=0|14=3470|151=1425|17=MP8PD15PGQDX|37=QRLFRKDQ09|60=20251017-22:18:08.905|31=336.97|32=4426|10=183|8=FIX.4.4|9=137|35=F|34=27|49=BUY_SIDE_ZZTB|56=SELL_SIDE_WH3P|52=20251017-22:18:08.955|11=DJZF4WT4A1|41=4TEQHOFPEB|55=NVDA|54=1|60=20251017-22:18:08.955|10=255|8=FIX.4.4|9=191|35=8|34=28|49=SELL_SIDE_WH3P|56=BUY_SIDE_ZZTB|52=20251017-22:18:09.005|11=3VMD2IJGXS|55=TSLA|39=1|150=1|14=30|151=385|17=X0H3ZOT39NQ9|37=UU78ETZSSD|60=20251017-22:18:09.005|31=421.62|32=4878|10=228|8=FIX.4.4|9=137|35=W|34=29|49=SELL_SIDE_WH3P|56=BUY_SIDE_ZZTB|52=20251017-22:18:09.055|55=AMZN|268=2|269=0|270=152.22|271=4909|269=1|270=169.59|271=2603|10=046|8=FIX.4.4|9=71|35=0|34=33|49=BUY_SIDE_8XKV|56=SELL_SIDE_YXTZ|52=20251017-22:18:09.105|10=125|8=FIX.4.4|9=153|35=D|34=31|49=BUY_SIDE_KU3Q|56=SELL_SIDE_M9E7|52=20251017-22:18:09.155|11=1FZGQR6TTW|55=USDJPY|54=2|38=1478|40=3|59=3|60=20251017-22:18:09.155|44=396.39|10=052|8=FIX.4.4|9=81|35=2|34=34|49=BUY_SIDE_8XKV|56=SELL_SIDE_YXTZ|52=20251017-22:18:09.205|7=1|16=33|10=051|8=FIX.4.4|9=152|35=D|34=30|49=BUY_SIDE_NXG1|56=SELL_SIDE_ZE6W|52=20251017-22:18:09.255|11=4HBCK4BENG|55=EURUSD|54=2|38=109|40=2|59=3|60=20251017-22:18:09.255|44=104.88|10=185|8=FIX.4.4|9=71|35=0|34=31|49=BUY_SIDE_NXG1|56=SELL_SIDE_ZE6W|52=20251017-22:18:09.305|10=055|8=FIX.4.4|9=192|35=8|34=32|49=SELL_SIDE_M9E7|56=BUY_SIDE_KU3Q|52=20251017-22:18:09.355|11=E4EKTHU7GK|55=GCZ5|39=1|150=1|14=101|151=2598|17=NSQ16KK6MAON|37=IBS51KOKNI|60=20251017-22:18:09.355|31=34.53|32=3853|10=134|8=FIX.4.4|9=71|35=0|34=32|49=BUY_SIDE_NXG1|56=SELL_SIDE_ZE6W|52=20251017-22:18:09.405|10=057|8=FIX.4.4|9=119|35=X|34=35|49=SELL_SIDE_YXTZ|56=BUY_SIDE_8XKV|52=20251017-22:18:09.455|268=1|269=0|279=1|55=USDJPY|270=265.11|271=3627|10=070|8=FIX.4.4|9=138|35=W|34=30|49=SELL_SIDE_WH3P|56=BUY_SIDE_ZZTB|52=20251017-22:18:09.505|55=BTCUSD|268=2|269=0|270=206.97|271=3506|269=1|270=248.77|271=660|10=137|8=FIX.4.4|9=71|35=0|34=33|49=BUY_SIDE_NXG1|56=SELL_SIDE_ZE6W|52=20251017-22:18:09.555|10=064|8=FIX.4.4|9=119|35=X|34=34|49=SELL_SIDE_ZE6W|56=BUY_SIDE_NXG1|52=20251017-22:18:09.605|268=1|269=2|279=2|55=ETHUSD|270=261.11|271=3182|10=229|8=FIX.4.4|9=71|35=0|34=31|49=BUY_SIDE_ZZTB|56=SELL_SIDE_WH3P|52=20251017-22:18:09.655|10=097|8=FIX.4.4|9=176|35=8|34=36|49=SELL_SIDE_YXTZ|56=BUY_SIDE_8XKV|52=20251017-22:18:09.705|11=8V8FQH9BJX|55=MSFT|39=1|150=1|14=3590|151=2826|17=JCTYYKSR8JLJ|37=OO5JNTH147|60=20251017-22:18:09.705|10=102|8=FIX.4.4|9=115|35=X|34=33|49=SELL_SIDE_M9E7|56=BUY_SIDE_KU3Q|52=20251017-22:18:09.755|268=1|269=0|279=1|55=JPM|270=137.14|271=992|10=180|8=FIX.4.4|9=71|35=0|34=37|49=BUY_SIDE_8XKV|56=SELL_SIDE_YXTZ|52=20251017-22:18:09.805|10=136|8=FIX.4.4|9=117|35=X|34=34|49=SELL_SIDE_M9E7|56=BUY_SIDE_KU3Q|52=20251017-22:18:09.855|268=1|269=2|279=1|55=ESZ5|270=494.01|271=2685|10=045|8=FIX.4.4|9=137|35=W|34=38|49=SELL_SIDE_YXTZ|56=BUY_SIDE_8XKV|52=20251017-22:18:09.905|55=ESZ5|268=2|269=0|270=186.30|271=1484|269=1|270=242.94|271=2271|10=064|8=FIX.4.4|9=71|35=0|34=35|49=BUY_SIDE_NXG1|56=SELL_SIDE_ZE6W|52=20251017-22:18:09.955|10=070|8=FIX.4.4|9=135|35=W|34=32|49=SELL_SIDE_WH3P|56=BUY_SIDE_ZZTB|52=20251017-22:18:10.005|55=JPM|268=2|269=0|270=310.35|271=1228|269=1|270=343.53|271=745|10=138|8=FIX.4.4|9=149|35=D|34=36|49=BUY_SIDE_NXG1|56=SELL_SIDE_ZE6W|52=20251017-22:18:10.055|11=PDIE4K11YZ|55=NVDA|54=1|38=1298|40=1|59=3|60=20251017-22:18:10.055|44=7.49|10=243|8=FIX.4.4|9=90|35=5|34=35|49=BUY_SIDE_KU3Q|56=SELL_SIDE_M9E7|52=20251017-22:18:10.105|58=Session closing|10=177|8=FIX.4.4|9=137|35=F|34=33|49=BUY_SIDE_ZZTB|56=SELL_SIDE_WH3P|52=20251017-22:18:10.155|11=HSWC7ZN1PG|41=2IMESSOJ2L|55=AAPL|54=2|60=20251017-22:18:10.155|10=245|8=FIX.4.4|9=141|35=D|34=39|49=BUY_SIDE_8XKV|56=SELL_SIDE_YXTZ|52=20251017-22:18:10.205|11=3SRCHAXP2D|55=MSFT|54=2|38=4590|40=1|59=1|60=20251017-22:18:10.205|10=208|8=FIX.4.4|9=140|35=D|34=36|49=BUY_SIDE_KU3Q|56=SELL_SIDE_M9E7|52=20251017-22:18:10.255|11=O5L8T2FWQ3|55=AMZN|54=1|38=626|40=3|59=0|60=20251017-22:18:10.255|10=033|8=FIX.4.4|9=151|35=D|34=40|49=BUY_SIDE_8XKV|56=SELL_SIDE_YXTZ|52=20251017-22:18:10.305|11=Q1XHYX00E8|55=ESZ5|54=2|38=3015|40=1|59=3|60=20251017-22:18:10.305|44=102.82|10=112|8=FIX.4.4|9=84|35=1|34=41|49=BUY_SIDE_8XKV|56=SELL_SIDE_YXTZ|52=20251017-22:18:10.355|112=2LECCUMT|10=145|8=FIX.4.4|9=84|35=1|34=37|49=BUY_SIDE_NXG1|56=SELL_SIDE_ZE6W|52=20251017-22:18:10.405|112=ICVJO2UT|10=099|8=FIX.4.4|9=192|35=8|34=38|49=SELL_SIDE_ZE6W|56=BUY_SIDE_NXG1|52=20251017-22:18:10.455|11=RGC30ADE6U|55=CLX5|39=1|150=1|14=3453|151=29|17=1USK8Z231DKI|37=ECXWWJJ4GZ|60=20251017-22:18:10.455|31=481.28|32=2435|10=132|8=FIX.4.4|9=141|35=D|34=42|49=BUY_SIDE_8XKV|56=SELL_SIDE_YXTZ|52=20251017-22:18:10.505|11=HAV7QHXOQQ|55=TSLA|54=1|38=3597|40=3|59=1|60=20251017-22:18:10.505|10=007|8=FIX.4.4|9=178|35=8|34=37|49=SELL_SIDE_M9E7|56=BUY_SIDE_KU3Q|52=20251017-22:18:10.555|11=9SA4MWA1EJ|55=USDJPY|39=0|150=0|14=1176|151=3964|17=ZYBZ20ELEX79|37=ICTCL3HR2Y|60=20251017-22:18:10.555|10=086|8=FIX.4.4|9=141|35=D|34=38|49=BUY_SIDE_KU3Q|56=SELL_SIDE_M9E7|52=20251017-22:18:10.605|11=QH5Y87G677|55=GOOG|54=2|38=3880|40=3|59=0|60=20251017-22:18:10.605|10=032|8=FIX.4.4|9=141|35=D|34=43|49=BUY_SIDE_8XKV|56=SELL_SIDE_YXTZ|52=20251017-22:18:10.655|11=Y6DF4WWYIL|55=NVDA|54=1|38=1528|40=4|59=1|60=20251017-22:18:10.655|10=243|8=FIX.4.4|9=142|35=D|34=39|49=BUY_SIDE_KU3Q|56=SELL_SIDE_M9E7|52=20251017-22:18:10.705|11=EQZW1QIK15|55=BTCUSD|54=1|38=825|40=1|59=0|60=20251017-22:18:10.705|10=200|8=FIX.4.4|9=175|35=8|34=34|49=SELL_SIDE_WH3P|56=BUY_SIDE_ZZTB|52=20251017-22:18:10.755|11=OU8V9LDMX3|55=AMZN|39=0|150=0|14=946|151=3451|17=XI4443JGJKOK|37=PJW7SWTN1W|60=20251017-22:18:10.755|10=255|8=FIX.4.4|9=153|35=D|34=44|49=BUY_SIDE_8XKV|56=SELL_SIDE_YXTZ|52=20251017-22:18:10.805|11=42C1ISFLCS|55=BTCUSD|54=1|38=1797|40=4|59=4|60=20251017-22:18:10.805|44=105.16|10=030|8=FIX.4.4|9=117|35=X|34=40|49=SELL_SIDE_M9E7|56=BUY_SIDE_KU3Q|52=20251017-22:18:10.855|268=1|269=0|279=0|55=AAPL|270=137.89|271=3404|10=022|8=FIX.4.4|9=117|35=X|34=45|49=SELL_SIDE_YXTZ|56=BUY_SIDE_8XKV|52=20251017-22:18:10.905|268=1|269=1|279=1|55=NFLX|270=271.80|271=3217|10=149|8=FIX.4.4|9=177|35=8|34=46|49=SELL_SIDE_YXTZ|56=BUY_SIDE_8XKV|52=20251017-22:18:10.955|11=UOZA2DPNG8|55=USDJPY|39=0|150=0|14=331|151=3102|17=XSKYP4YOFH74|37=SMD4RVLL1Q|60=20251017-22:18:10.955|10=227|8=FIX.4.4|9=193|35=8|34=39|49=SELL_SIDE_ZE6W|56=BUY_SIDE_NXG1|52=20251017-22:18:11.005|11=YMBXQ76U13|55=META|39=2|150=2|14=2113|151=3818|17=GKKZIKZLBOWB|37=KX4S4AHW1A|60=20251017-22:18:11.005|31=181.48|32=398|10=012|8=FIX.4.4|9=84|35=1|34=40|49=BUY_SIDE_NXG1|56=SELL_SIDE_ZE6W|52=20251017-22:18:11.055|112=TU8ZYVRI|10=142|8=FIX.4.4|9=116|35=X|34=47|49=SELL_SIDE_YXTZ|56=BUY_SIDE_8XKV|52=20251017-22:18:11.105|268=1|269=1|279=0|55=NQZ5|270=387.31|271=668|10=095|8=FIX.4.4|9=153|35=D|34=41|49=BUY_SIDE_NXG1|56=SELL_SIDE_ZE6W|52=20251017-22:18:11.155|11=4YE3P03R76|55=BTCUSD|54=2|38=1441|40=2|59=3|60=20251017-22:18:11.155|44=429.57|10=170|8=FIX.4.4|9=175|35=8|34=35|49=SELL_SIDE_WH3P|56=BUY_SIDE_ZZTB|52=20251017-22:18:11.205|11=JKX8YYS3MC|55=BAC|39=2|150=2|14=3059|151=3585|17=E3WV97AR2MDP|37=D6P5UDZ4IU|60=20251017-22:18:11.205|10=165|8=FIX.4.4|9=136|35=W|34=42|49=SELL_SIDE_ZE6W|56=BUY_SIDE_NXG1|52=20251017-22:18:11.255|55=TSLA|268=2|269=0|270=56.37|271=4661|269=1|270=495.06|271=3012|10=200|8=FIX.4.4|9=191|35=8|34=43|49=SELL_SIDE_ZE6W|56=BUY_SIDE_NXG1|52=20251017-22:18:11.305|11=BMVQRMJQOQ|55=NQZ5|39=2|150=2|14=552|151=3303|17=J9YHV7DYQ39R|37=I3LMMZEY8P|60=20251017-22:18:11.305|31=35.96|32=973|10=249|8=FIX.4.4|9=174|35=8|34=44|49=SELL_SIDE_ZE6W|56=BUY_SIDE_NXG1|52=20251017-22:18:11.355|11=VEPRXU3U8Z|55=SPY|39=2|150=2|14=818|151=2044|17=RDJ31IT1PL14|37=7JGCY6VRVL|60=20251017-22:18:11.355|10=152|8=FIX.4.4|9=150|35=D|34=41|49=BUY_SIDE_KU3Q|56=SELL_SIDE_M9E7|52=20251017-22:18:11.405|11=KY7JB4ZO13|55=CLX5|54=1|38=4135|40=2|59=4|60=20251017-22:18:11.405|44=78.30|10=209|8=FIX.4.4|9=89|35=A|34=42|49=BUY_SIDE_KU3Q|56=SELL_SIDE_M9E7|52=20251017-22:18:11.455|98=0|108=30|141=Y|10=116|8=FIX.4.4|9=71|35=0|34=43|49=BUY_SIDE_KU3Q|56=SELL_SIDE_M9E7|52=20251017-22:18:11.505|10=017|8=FIX.4.4|9=116|35=X|34=45|49=SELL_SIDE_ZE6W|56=BUY_SIDE_NXG1|52=20251017-22:18:11.555|268=1|269=1|279=1|55=META|270=474.33|271=764|10=022|8=FIX.4.4|9=194|35=8|34=46|49=SELL_SIDE_ZE6W|56=BUY_SIDE_NXG1|52=20251017-22:18:11.605|11=AKBK15UABT|55=ESZ5|39=1|150=1|14=2279|151=3897|17=8JDCSOX46I50|37=GWD32IIKKT|60=20251017-22:18:11.605|31=466.03|32=2543|10=215|8=FIX.4.4|9=191|35=8|34=48|49=SELL_SIDE_YXTZ|56=BUY_SIDE_8XKV|52=20251017-22:18:11.655|11=4HGG723ICY|55=SPY|39=2|150=2|14=953|151=2635|17=OL12T3OJCANY|37=KAMK3BJ5LY|60=20251017-22:18:11.655|31=306.27|32=147|10=148|8=FIX.4.4|9=194|35=8|34=44|49=SELL_SIDE_M9E7|56=BUY_SIDE_KU3Q|52=20251017-22:18:11.705|11=MEW5H4L4LP|55=GOOG|39=0|150=0|14=1702|151=1853|17=6HD34A5L8KXO|37=SC1HZ3JWWQ|60=20251017-22:18:11.705|31=134.96|32=3822|10=206|8=FIX.4.4|9=136|35=F|34=47|49=BUY_SIDE_NXG1|56=SELL_SIDE_ZE6W|52=20251017-22:18:11.755|11=1YRIDX4I2T|41=7L1GI5NUSF|55=JPM|54=1|60=20251017-22:18:11.755|10=128|8=FIX.4.4|9=133|35=W|34=45|49=SELL_SIDE_M9E7|56=BUY_SIDE_KU3Q|52=20251017-22:18:11.805|55=SPY|268=2|269=0|270=440.93|271=283|269=1|270=21.74|271=623|10=003|8=FIX.4.4|9=134|35=W|34=49|49=SELL_SIDE_YXTZ|56=BUY_SIDE_8XKV|52=20251017-22:18:11.855|55=SPY|268=2|269=0|270=25.93|271=3341|269=1|270=216.38|271=688|10=181|8=FIX.4.4|9=117|35=X|34=48|49=SELL_SIDE_ZE6W|56=BUY_SIDE_NXG1|52=20251017-22:18:11.905|268=1|269=1|279=1|55=GOOG|270=406.59|271=1357|10=080|8=FIX.4.4|9=137|35=W|34=50|49=SELL_SIDE_YXTZ|56=BUY_SIDE_8XKV|52=20251017-22:18:11.955|55=USDJPY|268=2|269=0|270=43.26|271=503|269=1|270=276.93|271=1716|10=141|8=FIX.4.4|9=117|35=X|34=36|49=SELL_SIDE_WH3P|56=BUY_SIDE_ZZTB|52=20251017-22:18:12.005|268=1|269=1|279=1|55=AMZN|270=184.65|271=1811|10=108|8=FIX.4.4|9=154|35=G|34=46|49=BUY_SIDE_KU3Q|56=SELL_SIDE_M9E7|52=20251017-22:18:12.055|11=TP8B5Z9R86|41=33KFPZZHOU|55=SPY|54=2|38=2190|60=20251017-22:18:12.055|44=469.85|10=211|8=FIX.4.4|9=151|35=D|34=47|49=BUY_SIDE_KU3Q|56=SELL_SIDE_M9E7|52=20251017-22:18:12.105|11=VH3CLVJIOS|55=ESZ5|54=1|38=4239|40=1|59=3|60=20251017-22:18:12.105|44=496.37|10=096|8=FIX.4.4|9=195|35=8|34=51|49=SELL_SIDE_YXTZ|56=BUY_SIDE_8XKV|52=20251017-22:18:12.155|11=J6H56QXUFO|55=USDJPY|39=0|150=0|14=1394|151=1268|17=LB5SS7NDLLXP|37=UMD94OHYCL|60=20251017-22:18:12.155|31=82.64|32=1778|10=032|8=FIX.4.4|9=71|35=0|34=37|49=BUY_SIDE_ZZTB|56=SELL_SIDE_WH3P|52=20251017-22:18:12.205|10=088|8=FIX.4.4|9=153|35=D|34=38|49=BUY_SIDE_ZZTB|56=SELL_SIDE_WH3P|52=20251017-22:18:12.255|11=LO9LFCE7G4|55=BTCUSD|54=1|38=4595|40=4|59=3|60=20251017-22:18:12.255|44=155.28|10=007|8=FIX.4.4|9=116|35=X|34=52|49=SELL_SIDE_YXTZ|56=BUY_SIDE_8XKV|52=20251017-22:18:12.305|268=1|269=0|279=0|55=SPY|270=123.50|271=1409|10=074|8=FIX.4.4|9=178|35=8|34=49|49=SELL_SIDE_ZE6W|56=BUY_SIDE_NXG1|52=20251017-22:18:12.355|11=R0K6WJ29P5|55=ETHUSD|39=2|150=2|14=3463|151=3029|17=H8ZAIZTJMF84|37=5AV29SGYID|60=20251017-22:18:12.355|10=082|8=FIX.4.4|9=119|35=X|34=48|49=SELL_SIDE_M9E7|56=BUY_SIDE_KU3Q|52=20251017-22:18:12.405|268=1|269=0|279=0|55=ETHUSD|270=217.05|271=1366|10=192|8=FIX.4.4|9=71|35=0|34=49|49=BUY_SIDE_KU3Q|56=SELL_SIDE_M9E7|52=20251017-22:18:12.455|10=028|8=FIX.4.4|9=194|35=8|34=53|49=SELL_SIDE_YXTZ|56=BUY_SIDE_8XKV|52=20251017-22:18:12.505|11=F2M5LISY1P|55=NQZ5|39=0|150=0|14=2568|151=1744|17=STQT6KABAVBX|37=525AD3HW12|60=20251017-22:18:12.505|31=191.27|32=1634|10=033|8=FIX.4.4|9=141|35=D|34=50|49=BUY_SIDE_KU3Q|56=SELL_SIDE_M9E7|52=20251017-22:18:12.555|11=22M444UX5D|55=NFLX|54=1|38=1068|40=1|59=1|60=20251017-22:18:12.555|10=030|8=FIX.4.4|9=175|35=8|34=51|49=SELL_SIDE_M9E7|56=BUY_SIDE_KU3Q|52=20251017-22:18:12.605|11=VGJ9RJPV5O|55=JPM|39=2|150=2|14=1727|151=2936|17=SWE4S5TZDXRI|37=D28GZ04KFH|60=20251017-22:18:12.605|10=157|8=FIX.4.4|9=155|35=G|34=54|49=BUY_SIDE_8XKV|56=SELL_SIDE_YXTZ|52=20251017-22:18:12.655|11=Z7OZF3WPAJ|41=DYPO1X25IM|55=AMZN|54=1|38=1581|60=20251017-22:18:12.655|44=118.73|10=147|8=FIX.4.4|9=151|35=D|34=39|49=BUY_SIDE_ZZTB|56=SELL_SIDE_WH3P|52=20251017-22:18:12.705|11=Y8QY4G2NFW|55=NFLX|54=2|38=3979|40=2|59=4|60=20251017-22:18:12.705|44=125.21|10=167|8=FIX.4.4|9=136|35=W|34=52|49=SELL_SIDE_M9E7|56=BUY_SIDE_KU3Q|52=20251017-22:18:12.755|55=TSLA|268=2|269=0|270=153.29|271=851|269=1|270=467.62|271=2096|10=179|8=FIX.4.4|9=116|35=X|34=53|49=SELL_SIDE_M9E7|56=BUY_SIDE_KU3Q|52=20251017-22:18:12.805|268=1|269=0|279=0|55=ESZ5|270=12.78|271=1596|10=239|8=FIX.4.4|9=71|35=0|34=54|49=BUY_SIDE_KU3Q|56=SELL_SIDE_M9E7|52=20251017-22:18:12.855|10=028|8=FIX.4.4|9=141|35=D|34=40|49=BUY_SIDE_ZZTB|56=SELL_SIDE_WH3P|52=20251017-22:18:12.905|11=ASFPSQOQ93|55=CLX5|54=1|38=1535|40=4|59=1|60=20251017-22:18:12.905|10=174|8=FIX.4.4|9=175|35=8|34=50|49=SELL_SIDE_ZE6W|56=BUY_SIDE_NXG1|52=20251017-22:18:12.955|11=R7H88OOXB0|55=GCZ5|39=1|150=1|14=144|151=1385|17=SRXSOKQU3Q6H|37=RMLJLITL0I|60=20251017-22:18:12.955|10=225|8=FIX.4.4|9=71|35=0|34=55|49=BUY_SIDE_8XKV|56=SELL_SIDE_YXTZ|52=20251017-22:18:13.005|10=123|8=FIX.4.4|9=90|35=5|34=55|49=BUY_SIDE_KU3Q|56=SELL_SIDE_M9E7|52=20251017-22:18:13.055|58=Session closing|10=186|8=FIX.4.4|9=117|35=X|34=51|49=SELL_SIDE_ZE6W|56=BUY_SIDE_NXG1|52=20251017-22:18:13.105|268=1|269=2|279=1|55=ESZ5|270=265.85|271=3829|10=072|8=FIX.4.4|9=116|35=X|34=56|49=SELL_SIDE_M9E7|56=BUY_SIDE_KU3Q|52=20251017-22:18:13.155|268=1|269=2|279=0|55=BAC|270=257.90|271=1898|10=204|8=FIX.4.4|9=193|35=8|34=41|49=SELL_SIDE_WH3P|56=BUY_SIDE_ZZTB|52=20251017-22:18:13.205|11=WCBEVBLA9P|55=BAC|39=0|150=0|14=2279|151=1113|17=GMBGAB7U3OA8|37=7VWMWV7E74|60=20251017-22:18:13.205|31=287.61|32=4104|10=169|8=FIX.4.4|9=150|35=D|34=42|49=BUY_SIDE_ZZTB|56=SELL_SIDE_WH3P|52=20251017-22:18:13.255|11=HMPUMO2W4W|55=SPY|54=1|38=3137|40=4|59=4|60=20251017-22:18:13.255|44=184.62|10=122|8=FIX.4.4|9=84|35=1|34=56|49=BUY_SIDE_8XKV|56=SELL_SIDE_YXTZ|52=20251017-22:18:13.305|112=MOF5EX24|10=112|8=FIX.4.4|9=157|35=G|34=52|49=BUY_SIDE_NXG1|56=SELL_SIDE_ZE6W|52=20251017-22:18:13.355|11=21YQ8QT9GP|41=H4PLZOWEIR|55=EURUSD|54=1|38=3835|60=20251017-22:18:13.355|44=137.40|10=245|8=FIX.4.4|9=116|35=X|34=57|49=SELL_SIDE_M9E7|56=BUY_SIDE_KU3Q|52=20251017-22:18:13.405|268=1|269=0|279=0|55=SPY|270=294.22|271=3863|10=245|8=FIX.4.4|9=82|35=2|34=43|49=BUY_SIDE_ZZTB|56=SELL_SIDE_WH3P|52=20251017-22:18:13.455|7=31|16=42|10=069|8=FIX.4.4|9=136|35=W|34=44|49=SELL_SIDE_WH3P|56=BUY_SIDE_ZZTB|52=20251017-22:18:13.505|55=CLX5|268=2|269=0|270=367.86|271=4861|269=1|270=77.46|271=3754|10=236|8=FIX.4.4|9=140|35=D|34=58|49=BUY_SIDE_KU3Q|56=SELL_SIDE_M9E7|52=20251017-22:18:13.555|11=K44OVT594R|55=NVDA|54=2|38=763|40=4|59=1|60=20251017-22:18:13.555|10=026|8=FIX.4.4|9=90|35=5|34=59|49=BUY_SIDE_KU3Q|56=SELL_SIDE_M9E7|52=20251017-22:18:13.605|58=Session closing|10=191|8=FIX.4.4|9=141|35=D|34=60|49=BUY_SIDE_KU3Q|56=SELL_SIDE_M9E7|52=20251017-22:18:13.655|11=Q2DF5JWE1E|55=TSLA|54=2|38=2534|40=1|59=1|60=20251017-22:18:13.655|10=074|8=FIX.4.4|9=150|35=D|34=45|49=BUY_SIDE_ZZTB|56=SELL_SIDE_WH3P|52=20251017-22:18:13.705|11=PA4KZSPPIV|55=BAC|54=1|38=2814|40=3|59=4|60=20251017-22:18:13.705|44=124.05|10=080|8=FIX.4.4|9=71|35=0|34=57|49=BUY_SIDE_8XKV|56=SELL_SIDE_YXTZ|52=20251017-22:18:13.755|10=137|8=FIX.4.4|9=82|35=2|34=46|49=BUY_SIDE_ZZTB|56=SELL_SIDE_WH3P|52=20251017-22:18:13.805|7=43|16=45|10=077|8=FIX.4.4|9=141|35=D|34=53|49=BUY_SIDE_NXG1|56=SELL_SIDE_ZE6W|52=20251017-22:18:13.855|11=I78EE8Z5RY|55=CLX5|54=2|38=2063|40=4|59=1|60=20251017-22:18:13.855|10=114|8=FIX.4.4|9=116|35=X|34=61|49=SELL_SIDE_M9E7|56=BUY_SIDE_KU3Q|52=20251017-22:18:13.905|268=1|269=1|279=2|55=SPY|270=418.26|271=4581|10=248|8=FIX.4.4|9=194|35=8|34=62|49=SELL_SIDE_M9E7|56=BUY_SIDE_KU3Q|52=20251017-22:18:13.955|11=FZSGAPYUS4|55=USDJPY|39=0|150=0|14=76|151=2814|17=M0DW3EEAITW1|37=VC68EKNW1G|60=20251017-22:18:13.955|31=345.65|32=2934|10=118|8=FIX.4.4|9=151|35=D|34=47|49=BUY_SIDE_ZZTB|56=SELL_SIDE_WH3P|52=20251017-22:18:14.005|11=ACUFN55JT4|55=CLX5|54=2|38=2229|40=2|59=3|60=20251017-22:18:14.005|44=411.80|10=075|8=FIX.4.4|9=133|35=W|34=58|49=SELL_SIDE_YXTZ|56=BUY_SIDE_8XKV|52=20251017-22:18:14.055|55=GCZ5|268=2|269=0|270=77.48|271=2699|269=1|270=8.55|271=796|10=128|8=FIX.4.4|9=196|35=8|34=54|49=SELL_SIDE_ZE6W|56=BUY_SIDE_NXG1|52=20251017-22:18:14.105|11=PFGTXI4S2T|55=BTCUSD|39=0|150=0|14=1789|151=3904|17=JYYXUEPXGU5C|37=X555MXB2WV|60=20251017-22:18:14.105|31=170.63|32=2028|10=035|8=FIX.4.4|9=71|35=0|34=48|49=BUY_SIDE_ZZTB|56=SELL_SIDE_WH3P|52=20251017-22:18:14.155|10=096|8=FIX.4.4|9=71|35=0|34=59|49=BUY_SIDE_8XKV|56=SELL_SIDE_YXTZ|52=20251017-22:18:14.205|10=130|8=FIX.4.4|9=195|35=8|34=63|49=SELL_SIDE_M9E7|56=BUY_SIDE_KU3Q|52=20251017-22:18:14.255|11=JLSM9PM4RA|55=GBPUSD|39=1|150=1|14=1190|151=654|17=EQKVWAJNX4S1|37=Y7JLNBBTNL|60=20251017-22:18:14.255|31=427.02|32=1357|10=185|8=FIX.4.4|9=155|35=G|34=60|49=BUY_SIDE_8XKV|56=SELL_SIDE_YXTZ|52=20251017-22:18:14.305|11=M9NM2Q5SPW|41=TIQM9BJXMV|55=USDJPY|54=2|38=21|60=20251017-22:18:14.305|44=135.36|10=231|8=FIX.4.4|9=196|35=8|34=55|49=SELL_SIDE_ZE6W|56=BUY_SIDE_NXG1|52=20251017-22:18:14.355|11=SBSOH1WWA7|55=EURUSD|39=1|150=1|14=2853|151=2539|17=8ZVQ828A6YCQ|37=8V1WFDBCN6|60=20251017-22:18:14.355|31=232.57|32=2571|10=192|8=FIX.4.4|9=137|35=W|34=49|49=SELL_SIDE_WH3P|56=BUY_SIDE_ZZTB|52=20251017-22:18:14.405|55=CLX5|268=2|269=0|270=494.71|271=4787|269=1|270=466.73|271=2194|10=035|8=FIX.4.4|9=176|35=8|34=56|49=SELL_SIDE_ZE6W|56=BUY_SIDE_NXG1|52=20251017-22:18:14.455|11=NTC945BR0F|55=NQZ5|39=0|150=0|14=2318|151=1360|17=XISPFWWDE4SZ|37=GEUI8MUM2M|60=20251017-22:18:14.455|10=008|8=FIX.4.4|9=117|35=X|34=61|49=SELL_SIDE_YXTZ|56=BUY_SIDE_8XKV|52=20251017-22:18:14.505|268=1|269=2|279=0|55=ETHUSD|270=93.46|271=583|10=207|8=FIX.4.4|9=116|35=X|34=57|49=SELL_SIDE_ZE6W|56=BUY_SIDE_NXG1|52=20251017-22:18:14.555|268=1|269=0|279=2|55=GCZ5|270=41.86|271=4642|10=011|8=FIX.4.4|9=140|35=D|34=58|49=BUY_SIDE_NXG1|56=SELL_SIDE_ZE6W|52=20251017-22:18:14.605|11=1QBJLSIECR|55=SPY|54=2|38=1525|40=4|59=0|60=20251017-22:18:14.605|10=103|8=FIX.4.4|9=140|35=D|34=59|49=BUY_SIDE_NXG1|56=SELL_SIDE_ZE6W|52=20251017-22:18:14.655|11=UYZMGDWNGN|55=AMZN|54=1|38=924|40=2|59=1|60=20251017-22:18:14.655|10=198|8=FIX.4.4|9=149|35=D|34=62|49=BUY_SIDE_8XKV|56=SELL_SIDE_YXTZ|52=20251017-22:18:14.705|11=JPKW2IJA6F|55=JPM|54=2|38=664|40=1|59=3|60=20251017-22:18:14.705|44=178.63|10=060|8=FIX.4.4|9=89|35=A|34=60|49=BUY_SIDE_NXG1|56=SELL_SIDE_ZE6W|52=20251017-22:18:14.755|98=0|108=30|141=Y|10=158|8=FIX.4.4|9=151|35=D|34=50|49=BUY_SIDE_ZZTB|56=SELL_SIDE_WH3P|52=20251017-22:18:14.805|11=SG9RMP5U2X|55=BTCUSD|54=2|38=85|40=4|59=4|60=20251017-22:18:14.805|44=257.74|10=215|8=FIX.4.4|9=90|35=5|34=64|49=BUY_SIDE_KU3Q|56=SELL_SIDE_M9E7|52=20251017-22:18:14.855|58=Session closing|10=195|8=FIX.4.4|9=151|35=D|34=51|49=BUY_SIDE_ZZTB|56=SELL_SIDE_WH3P|52=20251017-22:18:14.905|11=O55BQ7FCNO|55=AAPL|54=1|38=3488|40=4|59=4|60=20251017-22:18:14.905|44=447.85|10=114|8=FIX.4.4|9=153|35=D|34=65|49=BUY_SIDE_KU3Q|56=SELL_SIDE_M9E7|52=20251017-22:18:14.955|11=6W0PAUS1JL|55=USDJPY|54=2|38=1307|40=1|59=4|60=20251017-22:18:14.955|44=113.75|10=249|8=FIX.4.4|9=151|35=D|34=66|49=BUY_SIDE_KU3Q|56=SELL_SIDE_M9E7|52=20251017-22:18:15.005|11=FZFG65O2PQ|55=AMZN|54=2|38=1462|40=3|59=3|60=20251017-22:18:15.005|44=180.80|10=053|8=FIX.4.4|9=136|35=W|34=52|49=SELL_SIDE_WH3P|56=BUY_SIDE_ZZTB|52=20251017-22:18:15.055|55=CLX5|268=2|269=0|270=231.96|271=2123|269=1|270=92.27|271=2163|10=206|8=FIX.4.4|9=195|35=8|34=61|49=SELL_SIDE_ZE6W|56=BUY_SIDE_NXG1|52=20251017-22:18:15.105|11=S1EXGLP1GN|55=ETHUSD|39=1|150=1|14=2730|151=3024|17=SMC5277JWS6K|37=12PXXFXNDC|60=20251017-22:18:15.105|31=496.32|32=732|10=118|8=FIX.4.4|9=194|35=8|34=62|49=SELL_SIDE_ZE6W|56=BUY_SIDE_NXG1|52=20251017-22:18:15.155|11=8ED1GGTI40|55=GOOG|39=2|150=2|14=2054|151=2825|17=QZF5SXBUQDV0|37=6A1IOE1QMU|60=20251017-22:18:15.155|31=273.09|32=3109|10=246|8=FIX.4.4|9=139|35=F|34=67|49=BUY_SIDE_KU3Q|56=SELL_SIDE_M9E7|52=20251017-22:18:15.205|11=G9TBNFBZX5|41=REPL1WAMZ3|55=BTCUSD|54=2|60=20251017-22:18:15.205|10=100|8=FIX.4.4|9=152|35=D|34=68|49=BUY_SIDE_KU3Q|56=SELL_SIDE_M9E7|52=20251017-22:18:15.255|11=9M95291P87|55=EURUSD|54=1|38=630|40=1|59=4|60=20251017-22:18:15.255|44=321.42|10=066|8=FIX.4.4|9=151|35=D|34=53|49=BUY_SIDE_ZZTB|56=SELL_SIDE_WH3P|52=20251017-22:18:15.305|11=PKZKEQ37F7|55=MSFT|54=1|38=1309|40=4|59=3|60=20251017-22:18:15.305|44=240.25|10=128|8=FIX.4.4|9=192|35=8|34=54|49=SELL_SIDE_WH3P|56=BUY_SIDE_ZZTB|52=20251017-22:18:15.355|11=DSCKEB6394|55=BAC|39=1|150=1|14=407|151=2090|17=EOAXYE5BQQST|37=E0AHNH5GJ7|60=20251017-22:18:15.355|31=338.06|32=1804|10=109|8=FIX.4.4|9=192|35=8|34=63|49=SELL_SIDE_ZE6W|56=BUY_SIDE_NXG1|52=20251017-22:18:15.405|11=KWVZGYARWR|55=BAC|39=0|150=0|14=2785|151=812|17=IYGRRHAHPSVA|37=WG2DZEEBH1|60=20251017-22:18:15.405|31=445.84|32=3916|10=050|8=FIX.4.4|9=150|35=D|34=69|49=BUY_SIDE_KU3Q|56=SELL_SIDE_M9E7|52=20251017-22:18:15.455|11=5A7XUYUC6I|55=GCZ5|54=2|38=1937|40=4|59=3|60=20251017-22:18:15.455|44=35.15|10=017|8=FIX.4.4|9=194|35=8|34=55|49=SELL_SIDE_WH3P|56=BUY_SIDE_ZZTB|52=20251017-22:18:15.505|11=LC0TWMYDWV|55=TSLA|39=2|150=2|14=3666|151=1478|17=CKDIJGT276SE|37=48CO58SLB3|60=20251017-22:18:15.505|31=392.05|32=2633|10=054|8=FIX.4.4|9=150|35=D|34=63|49=BUY_SIDE_8XKV|56=SELL_SIDE_YXTZ|52=20251017-22:18:15.555|11=SPLEOQ8KD5|55=NQZ5|54=1|38=3245|40=3|59=4|60=20251017-22:18:15.555|44=21.78|10=143|8=FIX.4.4|9=71|35=0|34=64|49=BUY_SIDE_8XKV|56=SELL_SIDE_YXTZ|52=20251017-22:18:15.605|10=131|8=FIX.4.4|9=82|35=2|34=65|49=BUY_SIDE_8XKV|56=SELL_SIDE_YXTZ|52=20251017-22:18:15.655|7=25|16=64|10=120|8=FIX.4.4|9=71|35=0|34=66|49=BUY_SIDE_8XKV|56=SELL_SIDE_YXTZ|52=20251017-22:18:15.705|10=134|8=FIX.4.4|9=137|35=F|34=56|49=BUY_SIDE_ZZTB|56=SELL_SIDE_WH3P|52=20251017-22:18:15.755|11=V55AL9HI6Q|41=UEISKBQZEZ|55=META|54=1|60=20251017-22:18:15.755|10=029|8=FIX.4.4|9=90|35=5|34=64|49=BUY_SIDE_NXG1|56=SELL_SIDE_ZE6W|52=20251017-22:18:15.805|58=Session closing|10=227|8=FIX.4.4|9=115|35=X|34=70|49=SELL_SIDE_M9E7|56=BUY_SIDE_KU3Q|52=20251017-22:18:15.855|268=1|269=2|279=2|55=NQZ5|270=291.78|271=53|10=204|8=FIX.4.4|9=149|35=D|34=71|49=BUY_SIDE_KU3Q|56=SELL_SIDE_M9E7|52=20251017-22:18:15.905|11=SGXRDNTTY5|55=NFLX|54=2|38=73|40=4|59=4|60=20251017-22:18:15.905|44=460.48|10=066|8=FIX.4.4|9=174|35=8|34=65|49=SELL_SIDE_ZE6W|56=BUY_SIDE_NXG1|52=20251017-22:18:15.955|11=60F31OFZOW|55=CLX5|39=2|150=2|14=872|151=508|17=9BWRRPUJ72CW|37=EEJVB1YTUH|60=20251017-22:18:15.955|10=155|8=FIX.4.4|9=71|35=0|34=57|49=BUY_SIDE_ZZTB|56=SELL_SIDE_WH3P|52=20251017-22:18:16.005|10=092|8=FIX.4.4|9=155|35=G|34=66|49=BUY_SIDE_NXG1|56=SELL_SIDE_ZE6W|52=20251017-22:18:16.055|11=GXI6N9MVXF|41=KU58KRV97J|55=MSFT|54=2|38=2160|60=20251017-22:18:16.055|44=236.54|10=068|8=FIX.4.4|9=89|35=A|34=72|49=BUY_SIDE_KU3Q|56=SELL_SIDE_M9E7|52=20251017-22:18:16.105|98=0|108=30|141=Y|10=116|8=FIX.4.4|9=176|35=8|34=73|49=SELL_SIDE_M9E7|56=BUY_SIDE_KU3Q|52=20251017-22:18:16.155|11=U7LFK7BP1O|55=GOOG|39=1|150=1|14=2515|151=3291|17=2FP0760AB8WA|37=XOA4SE5LG6|60=20251017-22:18:16.155|10=046|8=FIX.4.4|9=135|35=W|34=67|49=SELL_SIDE_ZE6W|56=BUY_SIDE_NXG1|52=20251017-22:18:16.205|55=GCZ5|268=2|269=0|270=457.40|271=335|269=1|270=10.41|271=1709|10=117|8=FIX.4.4|9=71|35=0|34=74|49=BUY_SIDE_KU3Q|56=SELL_SIDE_M9E7|52=20251017-22:18:16.255|10=028|8=FIX.4.4|9=194|35=8|34=68|49=SELL_SIDE_ZE6W|56=BUY_SIDE_NXG1|52=20251017-22:18:16.305|11=1OWQFRQXYS|55=MSFT|39=1|150=1|14=2798|151=1940|17=LJQC61KC7LEC|37=K1JKP7HEOS|60=20251017-22:18:16.305|31=481.92|32=3444|10=110|8=FIX.4.4|9=149|35=D|34=58|49=BUY_SIDE_ZZTB|56=SELL_SIDE_WH3P|52=20251017-22:18:16.355|11=KP4YTONMOE|55=GCZ5|54=2|38=421|40=2|59=3|60=20251017-22:18:16.355|44=46.71|10=082|8=FIX.4.4|9=136|35=W|34=67|49=SELL_SIDE_YXTZ|56=BUY_SIDE_8XKV|52=20251017-22:18:16.405|55=NVDA|268=2|269=0|270=222.74|271=4725|269=1|270=51.72|271=4284|10=012|8=FIX.4.4|9=193|35=8|34=59|49=SELL_SIDE_WH3P|56=BUY_SIDE_ZZTB|52=20251017-22:18:16.455|11=BA4QUJW71L|55=MSFT|39=2|150=2|14=3781|151=334|17=P73QYW58CIO1|37=VNJKTMIR9J|60=20251017-22:18:16.455|31=149.79|32=2129|10=063|8=FIX.4.4|9=151|35=D|34=60|49=BUY_SIDE_ZZTB|56=SELL_SIDE_WH3P|52=20251017-22:18:16.505|11=P5XOS4UQJG|55=AAPL|54=2|38=4346|40=1|59=4|60=20251017-22:18:16.505|44=369.36|10=166|8=FIX.4.4|9=118|35=X|34=75|49=SELL_SIDE_M9E7|56=BUY_SIDE_KU3Q|52=20251017-22:18:16.555|268=1|269=1|279=2|55=BTCUSD|270=62.55|271=1612|10=145|8=FIX.4.4|9=89|35=A|34=76|49=BUY_SIDE_KU3Q|56=SELL_SIDE_M9E7|52=20251017-22:18:16.605|98=0|108=30|141=Y|10=125|8=FIX.4.4|9=139|35=D|34=68|49=BUY_SIDE_8XKV|56=SELL_SIDE_YXTZ|52=20251017-22:18:16.655|11=Y9HBRD9KQ1|55=JPM|54=1|38=459|40=4|59=1|60=20251017-22:18:16.655|10=108|8=FIX.4.4|9=143|35=D|34=77|49=BUY_SIDE_KU3Q|56=SELL_SIDE_M9E7|52=20251017-22:18:16.705|11=SGPAMM6J9Q|55=GBPUSD|54=2|38=1255|40=1|59=1|60=20251017-22:18:16.705|10=019|8=FIX.4.4|9=195|35=8|34=69|49=SELL_SIDE_YXTZ|56=BUY_SIDE_8XKV|52=20251017-22:18:16.755|11=022HKGQBN4|55=ETHUSD|39=0|150=0|14=2142|151=823|17=91D9V9J6QLCL|37=WNIW4KZQOB|60=20251017-22:18:16.755|31=293.37|32=3963|10=188|8=FIX.4.4|9=193|35=8|34=69|49=SELL_SIDE_ZE6W|56=BUY_SIDE_NXG1|52=20251017-22:18:16.805|11=CWZV413T0M|55=GCZ5|39=1|150=1|14=3840|151=3964|17=W53NILFMR7YX|37=I67KJQM1RC|60=20251017-22:18:16.805|31=329.59|32=609|10=243|8=FIX.4.4|9=119|35=X|34=78|49=SELL_SIDE_M9E7|56=BUY_SIDE_KU3Q|52=20251017-22:18:16.855|268=1|269=1|279=2|55=EURUSD|270=333.53|271=2338|10=224|8=FIX.4.4|9=153|35=D|34=79|49=BUY_SIDE_KU3Q|56=SELL_SIDE_M9E7|52=20251017-22:18:16.905|11=LP8KLW6ZG6|55=BTCUSD|54=2|38=4804|40=4|59=4|60=20251017-22:18:16.905|44=399.33|10=002|8=FIX.4.4|9=71|35=0|34=70|49=BUY_SIDE_8XKV|56=SELL_SIDE_YXTZ|52=20251017-22:18:16.955|10=137|8=FIX.4.4|9=155|35=G|34=61|49=BUY_SIDE_ZZTB|56=SELL_SIDE_WH3P|52=20251017-22:18:17.005|11=CGNVF43CZA|41=A37I3E51TS|55=AMZN|54=2|38=2943|60=20251017-22:18:17.005|44=419.92|10=245|8=FIX.4.4|9=175|35=8|34=71|49=SELL_SIDE_YXTZ|56=BUY_SIDE_8XKV|52=20251017-22:18:17.055|11=G08H6BEOMU|55=GOOG|39=2|150=2|14=3912|151=276|17=GHFE9TQ2PWG3|37=1UT9GEEUBX|60=20251017-22:18:17.055|10=224|8=FIX.4.4|9=89|35=A|34=62|49=BUY_SIDE_ZZTB|56=SELL_SIDE_WH3P|52=20251017-22:18:17.105|98=0|108=30|141=Y|10=186|8=FIX.4.4|9=119|35=X|34=63|49=SELL_SIDE_WH3P|56=BUY_SIDE_ZZTB|52=20251017-22:18:17.155|268=1|269=2|279=1|55=GBPUSD|270=325.83|271=1300|10=255|8=FIX.4.4|9=151|35=D|34=70|49=BUY_SIDE_NXG1|56=SELL_SIDE_ZE6W|52=20251017-22:18:17.205|11=7JVFD07ZXC|55=TSLA|54=2|38=4885|40=2|59=3|60=20251017-22:18:17.205|44=134.46|10=105|8=FIX.4.4|9=175|35=8|34=71|49=SELL_SIDE_ZE6W|56=BUY_SIDE_NXG1|52=20251017-22:18:17.255|11=O8IVJAJ1CD|55=NVDA|39=2|150=2|14=963|151=3682|17=LRB1URWEQ259|37=2XFEJ51AI9|60=20251017-22:18:17.255|10=095|8=FIX.4.4|9=193|35=8|34=64|49=SELL_SIDE_WH3P|56=BUY_SIDE_ZZTB|52=20251017-22:18:17.305|11=9203GR4OOJ|55=NVDA|39=1|150=1|14=1257|151=1558|17=90BRLP8CO0BY|37=GEJRS50W8P|60=20251017-22:18:17.305|31=97.43|32=1182|10=172|8=FIX.4.4|9=137|35=F|34=65|49=BUY_SIDE_ZZTB|56=SELL_SIDE_WH3P|52=20251017-22:18:17.355|11=GSQOIT9C3J|41=I7VIQXG1DW|55=META|54=1|60=20251017-22:18:17.355|10=025|8=FIX.4.4|9=154|35=G|34=72|49=BUY_SIDE_NXG1|56=SELL_SIDE_ZE6W|52=20251017-22:18:17.405|11=RRFQNZDN7S|41=XQH3LH3HB5|55=SPY|54=2|38=3252|60=20251017-22:18:17.405|44=301.99|10=016|8=FIX.4.4|9=71|35=0|34=80|49=BUY_SIDE_KU3Q|56=SELL_SIDE_M9E7|52=20251017-22:18:17.455|10=028|8=FIX.4.4|9=71|35=0|34=72|49=BUY_SIDE_8XKV|56=SELL_SIDE_YXTZ|52=20251017-22:18:17.505|10=131|8=FIX.4.4|9=71|35=0|34=73|49=BUY_SIDE_8XKV|56=SELL_SIDE_YXTZ|52=20251017-22:18:17.555|10=137|8=FIX.4.4|9=136|35=W|34=73|49=SELL_SIDE_ZE6W|56=BUY_SIDE_NXG1|52=20251017-22:18:17.605|55=AAPL|268=2|269=0|270=136.89|271=3972|269=1|270=60.79|271=1819|10=208|8=FIX.4.4|9=71|35=0|34=74|49=BUY_SIDE_NXG1|56=SELL_SIDE_ZE6W|52=20251017-22:18:17.655|10=069|8=FIX.4.4|9=194|35=8|34=74|49=SELL_SIDE_YXTZ|56=BUY_SIDE_8XKV|52=20251017-22:18:17.705|11=XXG6TLXT3N|55=EURUSD|39=0|150=0|14=1633|151=2217|17=1JUX1FID9A7Y|37=3KC2O389T4|60=20251017-22:18:17.705|31=33.64|32=910|10=115|8=FIX.4.4|9=137|35=F|34=81|49=BUY_SIDE_KU3Q|56=SELL_SIDE_M9E7|52=20251017-22:18:17.755|11=51IMB3ZJ13|41=N6NMQ3ATVW|55=GOOG|54=1|60=20251017-22:18:17.755|10=145|8=FIX.4.4|9=152|35=D|34=66|49=BUY_SIDE_ZZTB|56=SELL_SIDE_WH3P|52=20251017-22:18:17.805|11=028HFX0GXV|55=USDJPY|54=2|38=1603|40=4|59=4|60=20251017-22:18:17.805|44=65.33|10=243|8=FIX.4.4|9=139|35=W|34=75|49=SELL_SIDE_YXTZ|56=BUY_SIDE_8XKV|52=20251017-22:18:17.855|55=ETHUSD|268=2|269=0|270=434.44|271=1681|269=1|270=269.80|271=4435|10=244|8=FIX.4.4|9=155|35=G|34=82|49=BUY_SIDE_KU3Q|56=SELL_SIDE_M9E7|52=20251017-22:18:17.905|11=TA413XMARD|41=FT2QI1VHZF|55=MSFT|54=1|38=4335|60=20251017-22:18:17.905|44=434.73|10=012|8=FIX.4.4|9=137|35=F|34=67|49=BUY_SIDE_ZZTB|56=SELL_SIDE_WH3P|52=20251017-22:18:17.955|11=KY239NA359|41=7C47NC9R5V|55=GCZ5|54=2|60=20251017-22:18:17.955|10=109|8=FIX.4.4|9=137|35=W|34=83|49=SELL_SIDE_M9E7|56=BUY_SIDE_KU3Q|52=20251017-22:18:18.005|55=NQZ5|268=2|269=0|270=293.65|271=2092|269=1|270=407.63|271=4129|10=218|8=FIX.4.4|9=71|35=0|34=68|49=BUY_SIDE_ZZTB|56=SELL_SIDE_WH3P|52=20251017-22:18:18.055|10=101|8=FIX.4.4|9=116|35=X|34=76|49=SELL_SIDE_YXTZ|56=BUY_SIDE_8XKV|52=20251017-22:18:18.105|268=1|269=0|279=2|55=META|270=267.11|271=752|10=087|8=FIX.4.4|9=155|35=G|34=84|49=BUY_SIDE_KU3Q|56=SELL_SIDE_M9E7|52=20251017-22:18:18.155|11=9INMKH34NX|41=V90V6YYF8C|55=ESZ5|54=2|38=2001|60=20251017-22:18:18.155|44=196.62|10=236|8=FIX.4.4|9=152|35=D|34=69|49=BUY_SIDE_ZZTB|56=SELL_SIDE_WH3P|52=20251017-22:18:18.205|11=9UJPTLRQCJ|55=EURUSD|54=1|38=370|40=4|59=3|60=20251017-22:18:18.205|44=219.47|10=060|8=FIX.4.4|9=176|35=8|34=70|49=SELL_SIDE_WH3P|56=BUY_SIDE_ZZTB|52=20251017-22:18:18.255|11=R8YG9TA4HL|55=CLX5|39=2|150=2|14=1739|151=2505|17=W7AMA4NZ8N8C|37=HQO623WTI6|60=20251017-22:18:18.255|10=200|8=FIX.4.4|9=141|35=D|34=71|49=BUY_SIDE_ZZTB|56=SELL_SIDE_WH3P|52=20251017-22:18:18.305|11=JOWIG3FJL1|55=MSFT|54=2|38=4695|40=3|59=1|60=20251017-22:18:18.305|10=192|8=FIX.4.4|9=174|35=8|34=85|49=SELL_SIDE_M9E7|56=BUY_SIDE_KU3Q|52=20251017-22:18:18.355|11=HFM0IG05BK|55=JPM|39=0|150=0|14=1631|151=547|17=6SV4H4JAS77N|37=LOIYXXTM7B|60=20251017-22:18:18.355|10=048|8=FIX.4.4|9=139|35=W|34=75|49=SELL_SIDE_ZE6W|56=BUY_SIDE_NXG1|52=20251017-22:18:18.405|55=GBPUSD|268=2|269=0|270=235.27|271=2158|269=1|270=309.55|271=4844|10=159|8=FIX.4.4|9=176|35=8|34=76|49=SELL_SIDE_ZE6W|56=BUY_SIDE_NXG1|52=20251017-22:18:18.455|11=INV5KJF95F|55=NFLX|39=0|150=0|14=1445|151=3896|17=ZOM79EJDAWBW|37=KX70UQJ397|60=20251017-22:18:18.455|10=225|8=FIX.4.4|9=139|35=F|34=77|49=BUY_SIDE_NXG1|56=SELL_SIDE_ZE6W|52=20251017-22:18:18.505|11=6EPL0QOI2C|41=K0XS4YRABG|55=ETHUSD|54=2|60=20251017-22:18:18.505|10=104|8=FIX.4.4|9=71|35=0|34=72|49=BUY_SIDE_ZZTB|56=SELL_SIDE_WH3P|52=20251017-22:18:18.555|10=101|8=FIX.4.4|9=117|35=X|34=78|49=SELL_SIDE_ZE6W|56=BUY_SIDE_NXG1|52=20251017-22:18:18.605|268=1|269=0|279=2|55=NFLX|270=261.50|271=2687|10=096|8=FIX.4.4|9=154|35=G|34=77|49=BUY_SIDE_8XKV|56=SELL_SIDE_YXTZ|52=20251017-22:18:18.655|11=J71ZX46TXV|41=RITUNEW5KB|55=AMZN|54=2|38=821|60=20251017-22:18:18.655|44=202.90|10=130|8=FIX.4.4|9=119|35=X|34=79|49=SELL_SIDE_ZE6W|56=BUY_SIDE_NXG1|52=20251017-22:18:18.705|268=1|269=1|279=2|55=ETHUSD|270=399.32|271=3147|10=254|8=FIX.4.4|9=71|35=0|34=78|49=BUY_SIDE_8XKV|56=SELL_SIDE_YXTZ|52=20251017-22:18:18.755|10=145|8=FIX.4.4|9=89|35=A|34=73|49=BUY_SIDE_ZZTB|56=SELL_SIDE_WH3P|52=20251017-22:18:18.805|98=0|108=30|141=Y|10=196|8=FIX.4.4|9=71|35=0|34=86|49=BUY_SIDE_KU3Q|56=SELL_SIDE_M9E7|52=20251017-22:18:18.855|10=039|8=FIX.4.4|9=151|35=D|34=74|49=BUY_SIDE_ZZTB|56=SELL_SIDE_WH3P|52=20251017-22:18:18.905|11=FQWJ090ZZ8|55=GOOG|54=1|38=3930|40=1|59=3|60=20251017-22:18:18.905|44=439.02|10=139|8=FIX.4.4|9=116|35=X|34=87|49=SELL_SIDE_M9E7|56=BUY_SIDE_KU3Q|52=20251017-22:18:18.955|268=1|269=2|279=0|55=JPM|270=444.86|271=3250|10=241|8=FIX.4.4|9=141|35=D|34=75|49=BUY_SIDE_ZZTB|56=SELL_SIDE_WH3P|52=20251017-22:18:19.005|11=WU8SOII28Q|55=GOOG|54=2|38=3183|40=1|59=0|60=20251017-22:18:19.005|10=185|8=FIX.4.4|9=71|35=0|34=79|49=BUY_SIDE_8XKV|56=SELL_SIDE_YXTZ|52=20251017-22:18:19.055|10=140|8=FIX.4.4|9=141|35=D|34=80|49=BUY_SIDE_8XKV|56=SELL_SIDE_YXTZ|52=20251017-22:18:19.105|11=KNAFGYOEYP|55=NQZ5|54=2|38=3482|40=1|59=1|60=20251017-22:18:19.105|10=010|8=FIX.4.4|9=117|35=X|34=88|49=SELL_SIDE_M9E7|56=BUY_SIDE_KU3Q|52=20251017-22:18:19.155|268=1|269=0|279=0|55=AMZN|270=436.35|271=2721|10=054|8=FIX.4.4|9=135|35=W|34=76|49=SELL_SIDE_WH3P|56=BUY_SIDE_ZZTB|52=20251017-22:18:19.205|55=NQZ5|268=2|269=0|270=13.63|271=480|269=1|270=389.79|271=1339|10=198|8=FIX.4.4|9=116|35=X|34=80|49=SELL_SIDE_ZE6W|56=BUY_SIDE_NXG1|52=20251017-22:18:19.255|268=1|269=0|279=0|55=CLX5|270=87.54|271=1146|10=011|8=FIX.4.4|9=194|35=8|34=81|49=SELL_SIDE_ZE6W|56=BUY_SIDE_NXG1|52=20251017-22:18:19.305|11=6T256A00X0|55=TSLA|39=0|150=0|14=3941|151=2225|17=VQ23P8MM56T5|37=2NP5DXIF3A|60=20251017-22:18:19.305|31=471.28|32=1811|10=101|8=FIX.4.4|9=141|35=D|34=77|49=BUY_SIDE_ZZTB|56=SELL_SIDE_WH3P|52=20251017-22:18:19.355|11=XNHSM4ENCM|55=META|54=2|38=4517|40=3|59=1|60=20251017-22:18:19.355|10=221|8=FIX.4.4|9=176|35=8|34=89|49=SELL_SIDE_M9E7|56=BUY_SIDE_KU3Q|52=20251017-22:18:19.405|11=R44G4M9GK3|55=GOOG|39=2|150=2|14=2917|151=1707|17=6K4DJ70MEH9H|37=NV4U4UEZMR|60=20251017-22:18:19.405|10=108|8=FIX.4.4|9=153|35=G|34=82|49=BUY_SIDE_NXG1|56=SELL_SIDE_ZE6W|52=20251017-22:18:19.455|11=YVAGD6VPN1|41=RK3U3102SP|55=BAC|54=1|38=508|60=20251017-22:18:19.455|44=369.88|10=127|8=FIX.4.4|9=193|35=8|34=90|49=SELL_SIDE_M9E7|56=BUY_SIDE_KU3Q|52=20251017-22:18:19.505|11=OR8F7SX3OG|55=GCZ5|39=2|150=2|14=467|151=1019|17=O7OIK2BHY7F6|37=FEA0QIXZE4|60=20251017-22:18:19.505|31=171.00|32=2134|10=149|8=FIX.4.4|9=153|35=D|34=78|49=BUY_SIDE_ZZTB|56=SELL_SIDE_WH3P|52=20251017-22:18:19.555|11=FZB6FOMR9S|55=EURUSD|54=1|38=2163|40=3|59=4|60=20251017-22:18:19.555|44=467.71|10=099|8=FIX.4.4|9=84|35=1|34=79|49=BUY_SIDE_ZZTB|56=SELL_SIDE_WH3P|52=20251017-22:18:19.605|112=QKVWMW2M|10=172|8=FIX.4.4|9=138|35=W|34=81|49=SELL_SIDE_YXTZ|56=BUY_SIDE_8XKV|52=20251017-22:18:19.655|55=EURUSD|268=2|269=0|270=181.52|271=779|269=1|270=199.49|271=4582|10=218|8=FIX.4.4|9=189|35=8|34=83|49=SELL_SIDE_ZE6W|56=BUY_SIDE_NXG1|52=20251017-22:18:19.705|11=302H9CQ9TK|55=JPM|39=2|150=2|14=627|151=83|17=MAIG5BWJZ0BG|37=9O7ZZXN0UC|60=20251017-22:18:19.705|31=294.22|32=511|10=247|8=FIX.4.4|9=71|35=0|34=84|49=BUY_SIDE_NXG1|56=SELL_SIDE_ZE6W|52=20251017-22:18:19.755|10=073|8=FIX.4.4|9=119|35=X|34=91|49=SELL_SIDE_M9E7|56=BUY_SIDE_KU3Q|52=20251017-22:18:19.805|268=1|269=0|279=2|55=BTCUSD|270=196.83|271=4901|10=205|8=FIX.4.4|9=116|35=X|34=82|49=SELL_SIDE_YXTZ|56=BUY_SIDE_8XKV|52=20251017-22:18:19.855|268=1|269=2|279=2|55=NVDA|270=411.62|271=421|10=091|8=FIX.4.4|9=195|35=8|34=80|49=SELL_SIDE_WH3P|56=BUY_SIDE_ZZTB|52=20251017-22:18:19.905|11=ERHX6LHA07|55=USDJPY|39=0|150=0|14=3401|151=2231|17=0OXRG8N0AYCD|37=D73KP8OXLF|60=20251017-22:18:19.905|31=231.56|32=985|10=156|8=FIX.4.4|9=151|35=D|34=92|49=BUY_SIDE_KU3Q|56=SELL_SIDE_M9E7|52=20251017-22:18:19.955|11=NTP5522W2T|55=META|54=2|38=1434|40=2|59=4|60=20251017-22:18:19.955|44=221.47|10=042|8=FIX.4.4|9=192|35=8|34=81|49=SELL_SIDE_WH3P|56=BUY_SIDE_ZZTB|52=20251017-22:18:20.005|11=EHMJ0A0FGY|55=BAC|39=2|150=2|14=3514|151=2566|17=SKSJKFG84FF2|37=B56PSZAMFB|60=20251017-22:18:20.005|31=25.36|32=3457|10=109|8=FIX.4.4|9=71|35=0|34=93|49=BUY_SIDE_KU3Q|56=SELL_SIDE_M9E7|52=20251017-22:18:20.055|10=022|8=FIX.4.4|9=141|35=D|34=94|49=BUY_SIDE_KU3Q|56=SELL_SIDE_M9E7|52=20251017-22:18:20.105|11=OQA76L75HP|55=AAPL|54=1|38=1524|40=3|59=0|60=20251017-22:18:20.105|10=033|8=FIX.4.4|9=137|35=F|34=83|49=BUY_SIDE_8XKV|56=SELL_SIDE_YXTZ|52=20251017-22:18:20.155|11=U2R0B8DVS3|41=MS1UVEQ3P1|55=ESZ5|54=2|60=20251017-22:18:20.155|10=236|8=FIX.4.4|9=193|35=8|34=84|49=SELL_SIDE_YXTZ|56=BUY_SIDE_8XKV|52=20251017-22:18:20.205|11=HCXL651PI9|55=META|39=0|150=0|14=3710|151=736|17=RKSNA12VFPF2|37=W701LHT6DS|60=20251017-22:18:20.205|31=438.61|32=1977|10=219|8=FIX.4.4|9=71|35=0|34=82|49=BUY_SIDE_ZZTB|56=SELL_SIDE_WH3P|52=20251017-22:18:20.255|10=092|8=FIX.4.4|9=71|35=0|34=85|49=BUY_SIDE_NXG1|56=SELL_SIDE_ZE6W|52=20251017-22:18:20.305|10=057|8=FIX.4.4|9=137|35=F|34=95|49=BUY_SIDE_KU3Q|56=SELL_SIDE_M9E7|52=20251017-22:18:20.355|11=6A1SJ0PA7V|41=0254VPI2K6|55=META|54=1|60=20251017-22:18:20.355|10=031|8=FIX.4.4|9=71|35=0|34=96|49=BUY_SIDE_KU3Q|56=SELL_SIDE_M9E7|52=20251017-22:18:20.405|10=024|8=FIX.4.4|9=196|35=8|34=86|49=SELL_SIDE_ZE6W|56=BUY_SIDE_NXG1|52=20251017-22:18:20.455|11=00TSXNY6HA|55=ETHUSD|39=0|150=0|14=2355|151=2355|17=JFXDXPHX5KLC|37=3Q4AL6ZO5H|60=20251017-22:18:20.455|31=494.05|32=1991|10=223|8=FIX.4.4|9=71|35=0|34=97|49=BUY_SIDE_KU3Q|56=SELL_SIDE_M9E7|52=20251017-22:18:20.505|10=026|8=FIX.4.4|9=137|35=F|34=83|49=BUY_SIDE_ZZTB|56=SELL_SIDE_WH3P|52=20251017-22:18:20.555|11=ZHX57TOEOW|41=X9UPZWYH9S|55=NQZ5|54=1|60=20251017-22:18:20.555|10=117|8=FIX.4.4|9=195|35=8|34=87|49=SELL_SIDE_ZE6W|56=BUY_SIDE_NXG1|52=20251017-22:18:20.605|11=0YM817PYMJ|55=ETHUSD|39=1|150=1|14=740|151=2788|17=X2VCIHOF18P0|37=C1616IROOD|60=20251017-22:18:20.605|31=330.33|32=3432|10=044|8=FIX.4.4|9=116|35=X|34=98|49=SELL_SIDE_M9E7|56=BUY_SIDE_KU3Q|52=20251017-22:18:20.655|268=1|269=1|279=0|55=MSFT|270=44.18|271=4145|10=006|8=FIX.4.4|9=150|35=D|34=99|49=BUY_SIDE_KU3Q|56=SELL_SIDE_M9E7|52=20251017-22:18:20.705|11=7NWPRRV1SH|55=META|54=2|38=4688|40=3|59=4|60=20251017-22:18:20.705|44=99.73|10=082|8=FIX.4.4|9=142|35=D|34=88|49=BUY_SIDE_NXG1|56=SELL_SIDE_ZE6W|52=20251017-22:18:20.755|11=S7V2WFLAI0|55=ETHUSD|54=2|38=811|40=2|59=1|60=20251017-22:18:20.755|10=244|8=FIX.4.4|9=118|35=X|34=100|49=SELL_SIDE_M9E7|56=BUY_SIDE_KU3Q|52=20251017-22:18:20.805|268=1|269=2|279=1|55=MSFT|270=100.96|271=1384|10=088|8=FIX.4.4|9=194|35=8|34=89|49=SELL_SIDE_ZE6W|56=BUY_SIDE_NXG1|52=20251017-22:18:20.855|11=4AN2BXEADU|55=AAPL|39=2|150=2|14=2437|151=1362|17=UJ4Q14EILPJH|37=V13FXQ0WKK|60=20251017-22:18:20.855|31=183.19|32=1625|10=005|8=FIX.4.4|9=117|35=X|34=90|49=SELL_SIDE_ZE6W|56=BUY_SIDE_NXG1|52=20251017-22:18:20.905|268=1|269=1|279=2|55=MSFT|270=406.14|271=3732|10=082|8=FIX.4.4|9=138|35=W|34=101|49=SELL_SIDE_M9E7|56=BUY_SIDE_KU3Q|52=20251017-22:18:20.955|55=ESZ5|268=2|269=0|270=214.64|271=1648|269=1|270=472.50|271=1410|10=244|8=FIX.4.4|9=89|35=A|34=85|49=BUY_SIDE_8XKV|56=SELL_SIDE_YXTZ|52=20251017-22:18:21.005|98=0|108=30|141=Y|10=221|8=FIX.4.4|9=194|35=8|34=86|49=SELL_SIDE_YXTZ|56=BUY_SIDE_8XKV|52=20251017-22:18:21.055|11=JBT5IB04BI|55=AAPL|39=0|150=0|14=1312|151=1407|17=I2R4RJ6D93UK|37=H693QNYO62|60=20251017-22:18:21.055|31=131.27|32=1657|10=188|8=FIX.4.4|9=194|35=8|34=84|49=SELL_SIDE_WH3P|56=BUY_SIDE_ZZTB|52=20251017-22:18:21.105|11=7YB1IUTSOZ|55=AAPL|39=2|150=2|14=1645|151=1038|17=W1XD7QFSDWM1|37=GUZRVBYVQ4|60=20251017-22:18:21.105|31=181.88|32=1431|10=181|8=FIX.4.4|9=117|35=X|34=85|49=SELL_SIDE_WH3P|56=BUY_SIDE_ZZTB|52=20251017-22:18:21.155|268=1|269=1|279=0|55=ETHUSD|270=88.10|271=253|10=164|8=FIX.4.4|9=141|35=D|34=102|49=BUY_SIDE_KU3Q|56=SELL_SIDE_M9E7|52=20251017-22:18:21.205|11=3BR9Q9A92T|55=BAC|54=2|38=2941|40=1|59=1|60=20251017-22:18:21.205|10=227|8=FIX.4.4|9=149|35=D|34=86|49=BUY_SIDE_ZZTB|56=SELL_SIDE_WH3P|52=20251017-22:18:21.255|11=VCJHMM3JU0|55=MSFT|54=1|38=319|40=1|59=3|60=20251017-22:18:21.255|44=25.71|10=056|8=FIX.4.4|9=194|35=8|34=87|49=SELL_SIDE_WH3P|56=BUY_SIDE_ZZTB|52=20251017-22:18:21.305|11=BJ3JQQETHE|55=AAPL|39=0|150=0|14=1652|151=3143|17=22ZSWD2AFGEO|37=K7A992C0UX|60=20251017-22:18:21.305|31=196.32|32=2961|10=238|8=FIX.4.4|9=175|35=8|34=103|49=SELL_SIDE_M9E7|56=BUY_SIDE_KU3Q|52=20251017-22:18:21.355|11=X1KICPW110|55=SPY|39=0|150=0|14=646|151=3200|17=5TUYG6JAGDP0|37=AX5POMP9GE|60=20251017-22:18:21.355|10=080|8=FIX.4.4|9=138|35=F|34=104|49=BUY_SIDE_KU3Q|56=SELL_SIDE_M9E7|52=20251017-22:18:21.405|11=H6I3LMW3DR|41=VRCU256BYK|55=MSFT|54=2|60=20251017-22:18:21.405|10=203|8=FIX.4.4|9=85|35=1|34=105|49=BUY_SIDE_KU3Q|56=SELL_SIDE_M9E7|52=20251017-22:18:21.455|112=CTZIBCIP|10=117|8=FIX.4.4|9=142|35=D|34=106|49=BUY_SIDE_KU3Q|56=SELL_SIDE_M9E7|52=20251017-22:18:21.505|11=4OYXRMOD32|55=NFLX|54=1|38=1272|40=1|59=1|60=20251017-22:18:21.505|10=156|8=FIX.4.4|9=196|35=8|34=88|49=SELL_SIDE_WH3P|56=BUY_SIDE_ZZTB|52=20251017-22:18:21.555|11=JWBN04TIP0|55=ETHUSD|39=1|150=1|14=1828|151=2294|17=IC4YALK89X3W|37=V381PJNAK4|60=20251017-22:18:21.555|31=340.29|32=4160|10=169|8=FIX.4.4|9=72|35=0|34=107|49=BUY_SIDE_KU3Q|56=SELL_SIDE_M9E7|52=20251017-22:18:21.605|10=069|8=FIX.4.4|9=151|35=D|34=87|49=BUY_SIDE_8XKV|56=SELL_SIDE_YXTZ|52=20251017-22:18:21.655|11=ZCPQVT422J|55=NFLX|54=1|38=1091|40=4|59=4|60=20251017-22:18:21.655|44=199.16|10=204|8=FIX.4.4|9=136|35=W|34=91|49=SELL_SIDE_ZE6W|56=BUY_SIDE_NXG1|52=20251017-22:18:21.705|55=NQZ5|268=2|269=0|270=476.16|271=1142|269=1|270=434.25|271=420|10=187|8=FIX.4.4|9=90|35=5|34=92|49=BUY_SIDE_NXG1|56=SELL_SIDE_ZE6W|52=20251017-22:18:21.755|58=Session closing|10=229|8=FIX.4.4|9=91|35=5|34=108|49=BUY_SIDE_KU3Q|56=SELL_SIDE_M9E7|52=20251017-22:18:21.805|58=Session closing|10=236|8=FIX.4.4|9=194|35=8|34=93|49=SELL_SIDE_ZE6W|56=BUY_SIDE_NXG1|52=20251017-22:18:21.855|11=1446SVXC7F|55=NFLX|39=2|150=2|14=1443|151=2592|17=3HO03ZLRZN9W|37=YZHWLYKJH7|60=20251017-22:18:21.855|31=238.02|32=1221|10=078|8=FIX.4.4|9=137|35=F|34=89|49=BUY_SIDE_ZZTB|56=SELL_SIDE_WH3P|52=20251017-22:18:21.905|11=HGW5J5ZT1N|41=OXU88ERAJO|55=AAPL|54=1|60=20251017-22:18:21.905|10=007|8=FIX.4.4|9=84|35=2|34=109|49=BUY_SIDE_KU3Q|56=SELL_SIDE_M9E7|52=20251017-22:18:21.955|7=78|16=108|10=118|8=FIX.4.4|9=137|35=F|34=90|49=BUY_SIDE_ZZTB|56=SELL_SIDE_WH3P|52=20251017-22:18:22.005|11=F5R1N38CFZ|41=8DECQLM7GB|55=META|54=1|60=20251017-22:18:22.005|10=156|8=FIX.4.4|9=137|35=W|34=110|49=SELL_SIDE_M9E7|56=BUY_SIDE_KU3Q|52=20251017-22:18:22.055|55=MSFT|268=2|269=0|270=140.04|271=2402|269=1|270=276.84|271=684|10=209|8=FIX.4.4|9=141|35=D|34=94|49=BUY_SIDE_NXG1|56=SELL_SIDE_ZE6W|52=20251017-22:18:22.105|11=6VBBHO2BJU|55=AAPL|54=2|38=1823|40=1|59=1|60=20251017-22:18:22.105|10=103|8=FIX.4.4|9=116|35=X|34=95|49=SELL_SIDE_ZE6W|56=BUY_SIDE_NXG1|52=20251017-22:18:22.155|268=1|269=2|279=2|55=SPY|270=388.02|271=2137|10=028|8=FIX.4.4|9=145|35=G|34=96|49=BUY_SIDE_NXG1|56=SELL_SIDE_ZE6W|52=20251017-22:18:22.205|11=KOEA5SOKT6|41=S7IDAWS6UU|55=META|54=2|38=1757|60=20251017-22:18:22.205|10=104|8=FIX.4.4|9=155|35=G|34=97|49=BUY_SIDE_NXG1|56=SELL_SIDE_ZE6W|52=20251017-22:18:22.255|11=TPOMNG9JAX|41=RLX69DO4AK|55=GOOG|54=2|38=2638|60=20251017-22:18:22.255|44=296.42|10=078|8=FIX.4.4|9=193|35=8|34=88|49=SELL_SIDE_YXTZ|56=BUY_SIDE_8XKV|52=20251017-22:18:22.305|11=RLXQ1OT4AG|55=META|39=1|150=1|14=2219|151=3727|17=4NY3ZU5H5KTQ|37=1X036AZ7VC|60=20251017-22:18:22.305|31=342.16|32=607|10=024|8=FIX.4.4|9=151|35=D|34=91|49=BUY_SIDE_ZZTB|56=SELL_SIDE_WH3P|52=20251017-22:18:22.355|11=5IDP58G0WU|55=AAPL|54=2|38=1793|40=4|59=3|60=20251017-22:18:22.355|44=239.69|10=105|8=FIX.4.4|9=192|35=8|34=92|49=SELL_SIDE_WH3P|56=BUY_SIDE_ZZTB|52=20251017-22:18:22.405|11=70KER4YUHS|55=SPY|39=1|150=1|14=694|151=1648|17=H30HP8YLAA0X|37=UIQBZEEFE5|60=20251017-22:18:22.405|31=357.25|32=1134|10=206|8=FIX.4.4|9=136|35=W|34=111|49=SELL_SIDE_M9E7|56=BUY_SIDE_KU3Q|52=20251017-22:18:22.455|55=NVDA|268=2|269=0|270=33.44|271=2324|269=1|270=481.78|271=454|10=152|8=FIX.4.4|9=89|35=A|34=89|49=BUY_SIDE_8XKV|56=SELL_SIDE_YXTZ|52=20251017-22:18:22.505|98=0|108=30|141=Y|10=231|8=FIX.4.4|9=196|35=8|34=112|49=SELL_SIDE_M9E7|56=BUY_SIDE_KU3Q|52=20251017-22:18:22.555|11=L24GUHPLJY|55=ETHUSD|39=2|150=2|14=1822|151=896|17=R72N0L1OMDVQ|37=B3WRVBHGHK|60=20251017-22:18:22.555|31=466.69|32=4397|10=206|8=FIX.4.4|9=153|35=D|34=98|49=BUY_SIDE_NXG1|56=SELL_SIDE_ZE6W|52=20251017-22:18:22.605|11=NCXI3Z6AH4|55=EURUSD|54=2|38=4121|40=1|59=4|60=20251017-22:18:22.605|44=489.54|10=009|8=FIX.4.4|9=192|35=8|34=99|49=SELL_SIDE_ZE6W|56=BUY_SIDE_NXG1|52=20251017-22:18:22.655|11=595EF7U1LW|55=USDJPY|39=0|150=0|14=210|151=241|17=L9QM9QYN0OWM|37=PQAMXHHJZZ|60=20251017-22:18:22.655|31=61.96|32=854|10=083|8=FIX.4.4|9=142|35=D|34=100|49=BUY_SIDE_NXG1|56=SELL_SIDE_ZE6W|52=20251017-22:18:22.705|11=KFOM4BDEE5|55=AAPL|54=1|38=1082|40=4|59=0|60=20251017-22:18:22.705|10=130|8=FIX.4.4|9=118|35=X|34=93|49=SELL_SIDE_WH3P|56=BUY_SIDE_ZZTB|52=20251017-22:18:22.755|268=1|269=1|279=2|55=GBPUSD|270=399.61|271=665|10=231|8=FIX.4.4|9=144|35=G|34=94|49=BUY_SIDE_ZZTB|56=SELL_SIDE_WH3P|52=20251017-22:18:22.805|11=DDKUP1NQXI|41=XP3NJP3YDL|55=SPY|54=1|38=3531|60=20251017-22:18:22.805|10=121|8=FIX.4.4|9=72|35=0|34=113|49=BUY_SIDE_KU3Q|56=SELL_SIDE_M9E7|52=20251017-22:18:22.855|10=074|8=FIX.4.4|9=156|35=G|34=101|49=BUY_SIDE_NXG1|56=SELL_SIDE_ZE6W|52=20251017-22:18:22.905|11=G3CWMSVSUG|41=AWZ8VGLBC6|55=META|54=2|38=3437|60=20251017-22:18:22.905|44=386.33|10=140|8=FIX.4.4|9=72|35=0|34=102|49=BUY_SIDE_NXG1|56=SELL_SIDE_ZE6W|52=20251017-22:18:22.955|10=109|8=FIX.4.4|9=196|35=8|34=90|49=SELL_SIDE_YXTZ|56=BUY_SIDE_8XKV|52=20251017-22:18:23.005|11=3F60BTR4V2|55=ETHUSD|39=1|150=1|14=2886|151=1946|17=XJYP7J4SWG74|37=M3NP35I921|60=20251017-22:18:23.005|31=415.36|32=3864|10=131|8=FIX.4.4|9=151|35=D|34=91|49=BUY_SIDE_8XKV|56=SELL_SIDE_YXTZ|52=20251017-22:18:23.055|11=JVBZNCDCNT|55=TSLA|54=2|38=3970|40=4|59=3|60=20251017-22:18:23.055|44=452.89|10=241|8=FIX.4.4|9=155|35=G|34=114|49=BUY_SIDE_KU3Q|56=SELL_SIDE_M9E7|52=20251017-22:18:23.105|11=LHBPF1P157|41=DX9FYK83BB|55=META|54=2|38=4823|60=20251017-22:18:23.105|44=19.70|10=152|8=FIX.4.4|9=152|35=D|34=103|49=BUY_SIDE_NXG1|56=SELL_SIDE_ZE6W|52=20251017-22:18:23.155|11=85UGPH4ZB8|55=ESZ5|54=1|38=1943|40=2|59=3|60=20251017-22:18:23.155|44=265.76|10=119|8=FIX.4.4|9=195|35=8|34=95|49=SELL_SIDE_WH3P|56=BUY_SIDE_ZZTB|52=20251017-22:18:23.205|11=J3RE9TAFPN|55=BTCUSD|39=2|150=2|14=2429|151=1004|17=0OX7ES4EJRP5|37=M8WM4GD0J1|60=20251017-22:18:23.205|31=349.51|32=562|10=101|8=FIX.4.4|9=91|35=5|34=115|49=BUY_SIDE_KU3Q|56=SELL_SIDE_M9E7|52=20251017-22:18:23.255|58=Session closing|10=235|8=FIX.4.4|9=141|35=D|34=104|49=BUY_SIDE_NXG1|56=SELL_SIDE_ZE6W|52=20251017-22:18:23.305|11=93F3VPM79U|55=SPY|54=2|38=4245|40=1|59=1|60=20251017-22:18:23.305|10=087|8=FIX.4.4|9=194|35=8|34=92|49=SELL_SIDE_YXTZ|56=BUY_SIDE_8XKV|52=20251017-22:18:23.355|11=6XE7TKUJ49|55=MSFT|39=2|150=2|14=2067|151=3979|17=50W6Z8KSILN1|37=T475E3DEJL|60=20251017-22:18:23.355|31=232.66|32=4277|10=044|8=FIX.4.4|9=155|35=G|34=96|49=BUY_SIDE_ZZTB|56=SELL_SIDE_WH3P|52=20251017-22:18:23.405|11=VNQXA0LI7F|41=FL8HZ3KOQ0|55=NQZ5|54=1|38=4664|60=20251017-22:18:23.405|44=102.64|10=068|8=FIX.4.4|9=140|35=W|34=105|49=SELL_SIDE_ZE6W|56=BUY_SIDE_NXG1|52=20251017-22:18:23.455|55=BTCUSD|268=2|269=0|270=425.59|271=3918|269=1|270=130.02|271=4013|10=177|8=FIX.4.4|9=90|35=A|34=116|49=BUY_SIDE_KU3Q|56=SELL_SIDE_M9E7|52=20251017-22:18:23.505|98=0|108=30|141=Y|10=157|8=FIX.4.4|9=141|35=D|34=93|49=BUY_SIDE_8XKV|56=SELL_SIDE_YXTZ|52=20251017-22:18:23.555|11=1BZJWX6P5W|55=NFLX|54=1|38=1807|40=2|59=1|60=20251017-22:18:23.555|10=250|8=FIX.4.4|9=141|35=D|34=117|49=BUY_SIDE_KU3Q|56=SELL_SIDE_M9E7|52=20251017-22:18:23.605|11=L2BY0QX18U|55=ESZ5|54=2|38=622|40=1|59=1|60=20251017-22:18:23.605|10=070|8=FIX.4.4|9=116|35=X|34=97|49=SELL_SIDE_WH3P|56=BUY_SIDE_ZZTB|52=20251017-22:18:23.655|268=1|269=0|279=2|55=JPM|270=240.03|271=4584|10=043|8=FIX.4.4|9=72|35=0|34=106|49=BUY_SIDE_NXG1|56=SELL_SIDE_ZE6W|52=20251017-22:18:23.705|10=107|8=FIX.4.4|9=139|35=F|34=98|49=BUY_SIDE_ZZTB|56=SELL_SIDE_WH3P|52=20251017-22:18:23.755|11=Y48MWTHY0R|41=GSIR79ABVK|55=GBPUSD|54=1|60=20251017-22:18:23.755|10=191|8=FIX.4.4|9=137|35=W|34=107|49=SELL_SIDE_ZE6W|56=BUY_SIDE_NXG1|52=20251017-22:18:23.805|55=MSFT|268=2|269=0|270=232.84|271=1539|269=1|270=476.10|271=213|10=254|8=FIX.4.4|9=115|35=X|34=94|49=SELL_SIDE_YXTZ|56=BUY_SIDE_8XKV|52=20251017-22:18:23.855|268=1|269=1|279=1|55=META|270=6.15|271=3555|10=045|8=FIX.4.4|9=155|35=G|34=95|49=BUY_SIDE_8XKV|56=SELL_SIDE_YXTZ|52=20251017-22:18:23.905|11=37MBSX4J0I|41=KTURF58MCF|55=ESZ5|54=2|38=1525|60=20251017-22:18:23.905|44=216.94|10=077|8=FIX.4.4|9=72|35=0|34=108|49=BUY_SIDE_NXG1|56=SELL_SIDE_ZE6W|52=20251017-22:18:23.955|10=116|8=FIX.4.4|9=72|35=0|34=118|49=BUY_SIDE_KU3Q|56=SELL_SIDE_M9E7|52=20251017-22:18:24.005|10=068|8=FIX.4.4|9=143|35=D|34=96|49=BUY_SIDE_8XKV|56=SELL_SIDE_YXTZ|52=20251017-22:18:24.055|11=JEBQE4APQS|55=USDJPY|54=1|38=2007|40=2|59=1|60=20251017-22:18:24.055|10=143|8=FIX.4.4|9=90|35=A|34=119|49=BUY_SIDE_KU3Q|56=SELL_SIDE_M9E7|52=20251017-22:18:24.105|98=0|108=30|141=Y|10=157|8=FIX.4.4|9=71|35=0|34=99|49=BUY_SIDE_ZZTB|56=SELL_SIDE_WH3P|52=20251017-22:18:24.155|10=103|8=FIX.4.4|9=151|35=D|34=120|49=BUY_SIDE_KU3Q|56=SELL_SIDE_M9E7|52=20251017-22:18:24.205|11=OEPBZQ7CBE|55=BAC|54=2|38=1848|40=1|59=3|60=20251017-22:18:24.205|44=309.95|10=023|8=FIX.4.4|9=140|35=D|34=100|49=BUY_SIDE_ZZTB|56=SELL_SIDE_WH3P|52=20251017-22:18:24.255|11=DRWGBQRD9J|55=BAC|54=2|38=621|40=2|59=0|60=20251017-22:18:24.255|10=085|8=FIX.4.4|9=118|35=X|34=101|49=SELL_SIDE_WH3P|56=BUY_SIDE_ZZTB|52=20251017-22:18:24.305|268=1|269=2|279=1|55=ESZ5|270=259.53|271=4862|10=151|8=FIX.4.4|9=175|35=8|34=102|49=SELL_SIDE_WH3P|56=BUY_SIDE_ZZTB|52=20251017-22:18:24.355|11=AUVHDP324N|55=AAPL|39=2|150=2|14=467|151=805|17=WN02FTOQPGGL|37=4UUL0Q24EL|60=20251017-22:18:24.355|10=164|8=FIX.4.4|9=144|35=D|34=121|49=BUY_SIDE_KU3Q|56=SELL_SIDE_M9E7|52=20251017-22:18:24.405|11=OTKYO5DZRL|55=USDJPY|54=1|38=2544|40=1|59=0|60=20251017-22:18:24.405|10=132|8=FIX.4.4|9=119|35=X|34=103|49=SELL_SIDE_WH3P|56=BUY_SIDE_ZZTB|52=20251017-22:18:24.455|268=1|269=2|279=0|55=GBPUSD|270=28.57|271=1017|10=000|8=FIX.4.4|9=90|35=A|34=109|49=BUY_SIDE_NXG1|56=SELL_SIDE_ZE6W|52=20251017-22:18:24.505|98=0|108=30|141=Y|10=196|8=FIX.4.4|9=71|35=0|34=97|49=BUY_SIDE_8XKV|56=SELL_SIDE_YXTZ|52=20251017-22:18:24.555|10=141|8=FIX.4.4|9=193|35=8|34=104|49=SELL_SIDE_WH3P|56=BUY_SIDE_ZZTB|52=20251017-22:18:24.605|11=1W40NNJ6GV|55=TSLA|39=2|150=2|14=3363|151=3927|17=7V1F4URJ1PUM|37=I59RQQUFF9|60=20251017-22:18:24.605|31=50.53|32=359|10=249|8=FIX.4.4|9=136|35=W|34=98|49=SELL_SIDE_YXTZ|56=BUY_SIDE_8XKV|52=20251017-22:18:24.655|55=SPY|268=2|269=0|270=274.92|271=4831|269=1|270=217.13|271=3210|10=017|8=FIX.4.4|9=196|35=8|34=122|49=SELL_SIDE_M9E7|56=BUY_SIDE_KU3Q|52=20251017-22:18:24.705|11=KRO5CB3ABU|55=EURUSD|39=0|150=0|14=1409|151=2814|17=YZEWQR7AT9GK|37=ON54NMQF8V|60=20251017-22:18:24.705|31=23.44|32=3334|10=199|8=FIX.4.4|9=72|35=0|34=110|49=BUY_SIDE_NXG1|56=SELL_SIDE_ZE6W|52=20251017-22:18:24.755|10=108|8=FIX.4.4|9=89|35=A|34=99|49=BUY_SIDE_8XKV|56=SELL_SIDE_YXTZ|52=20251017-22:18:24.805|98=0|108=30|141=Y|10=237|8=FIX.4.4|9=83|35=2|34=100|49=BUY_SIDE_8XKV|56=SELL_SIDE_YXTZ|52=20251017-22:18:24.855|7=88|16=99|10=178|8=FIX.4.4|9=118|35=X|34=123|49=SELL_SIDE_M9E7|56=BUY_SIDE_KU3Q|52=20251017-22:18:24.905|268=1|269=1|279=0|55=GOOG|270=306.53|271=4161|10=079|8=FIX.4.4|9=194|35=8|34=111|49=SELL_SIDE_ZE6W|56=BUY_SIDE_NXG1|52=20251017-22:18:24.955|11=D68HZK68V7|55=META|39=2|150=2|14=3722|151=1134|17=7A03DHSQ8ZQA|37=3KA6911FDS|60=20251017-22:18:24.955|31=457.45|32=695|10=139|8=FIX.4.4|9=72|35=0|34=101|49=BUY_SIDE_8XKV|56=SELL_SIDE_YXTZ|52=20251017-22:18:25.005|10=167|8=FIX.4.4|9=139|35=W|34=105|49=SELL_SIDE_WH3P|56=BUY_SIDE_ZZTB|52=20251017-22:18:25.055|55=USDJPY|268=2|269=0|270=12.07|271=2571|269=1|270=174.88|271=4298|10=211|8=FIX.4.4|9=84|35=2|34=102|49=BUY_SIDE_8XKV|56=SELL_SIDE_YXTZ|52=20251017-22:18:25.105|7=73|16=101|10=196|8=FIX.4.4|9=118|35=X|34=103|49=SELL_SIDE_YXTZ|56=BUY_SIDE_8XKV|52=20251017-22:18:25.155|268=1|269=0|279=0|55=GOOG|270=291.89|271=2613|10=192|8=FIX.4.4|9=153|35=G|34=112|49=BUY_SIDE_NXG1|56=SELL_SIDE_ZE6W|52=20251017-22:18:25.205|11=DSNXFHRJ23|41=KP6GRXE12Q|55=BAC|54=2|38=942|60=20251017-22:18:25.205|44=69.24|10=126|8=FIX.4.4|9=90|35=A|34=104|49=BUY_SIDE_8XKV|56=SELL_SIDE_YXTZ|52=20251017-22:18:25.255|98=0|108=30|141=Y|10=008|8=FIX.4.4|9=152|35=D|34=105|49=BUY_SIDE_8XKV|56=SELL_SIDE_YXTZ|52=20251017-22:18:25.305|11=QF73R00THR|55=NVDA|54=2|38=1289|40=4|59=4|60=20251017-22:18:25.305|44=377.13|10=185|8=FIX.4.4|9=116|35=X|34=106|49=SELL_SIDE_YXTZ|56=BUY_SIDE_8XKV|52=20251017-22:18:25.355|268=1|269=0|279=2|55=AMZN|270=96.95|271=428|10=113|8=FIX.4.4|9=142|35=D|34=113|49=BUY_SIDE_NXG1|56=SELL_SIDE_ZE6W|52=20251017-22:18:25.405|11=3T6PHFUKAA|55=GCZ5|54=1|38=4428|40=2|59=1|60=20251017-22:18:25.405|10=158|8=FIX.4.4|9=137|35=W|34=107|49=SELL_SIDE_YXTZ|56=BUY_SIDE_8XKV|52=20251017-22:18:25.455|55=GCZ5|268=2|269=0|270=79.22|271=4869|269=1|270=194.93|271=1305|10=059|8=FIX.4.4|9=117|35=X|34=108|49=SELL_SIDE_YXTZ|56=BUY_SIDE_8XKV|52=20251017-22:18:25.505|268=1|269=1|279=1|55=NQZ5|270=44.29|271=2061|10=138|8=FIX.4.4|9=138|35=F|34=124|49=BUY_SIDE_KU3Q|56=SELL_SIDE_M9E7|52=20251017-22:18:25.555|11=OS4P0X7SEO|41=NEDG6GE73G|55=NQZ5|54=2|60=20251017-22:18:25.555|10=188|8=FIX.4.4|9=154|35=G|34=125|49=BUY_SIDE_KU3Q|56=SELL_SIDE_M9E7|52=20251017-22:18:25.605|11=OR84OSPDEZ|41=NNIVF3A5AA|55=SPY|54=2|38=576|60=20251017-22:18:25.605|44=178.16|10=217|8=FIX.4.4|9=193|35=8|34=114|49=SELL_SIDE_ZE6W|56=BUY_SIDE_NXG1|52=20251017-22:18:25.655|11=PRLP637CAJ|55=SPY|39=0|150=0|14=3886|151=586|17=YQ1AQPO1KUXL|37=8V2EIYI4E7|60=20251017-22:18:25.655|31=472.56|32=4688|10=011|8=FIX.4.4|9=118|35=X|34=109|49=SELL_SIDE_YXTZ|56=BUY_SIDE_8XKV|52=20251017-22:18:25.705|268=1|269=2|279=0|55=EURUSD|270=373.35|271=11|10=003|8=FIX.4.4|9=91|35=5|34=115|49=BUY_SIDE_NXG1|56=SELL_SIDE_ZE6W|52=20251017-22:18:25.755|58=Session closing|10=022|8=FIX.4.4|9=135|35=W|34=106|49=SELL_SIDE_WH3P|56=BUY_SIDE_ZZTB|52=20251017-22:18:25.805|55=SPY|268=2|269=0|270=487.66|271=266|269=1|270=302.20|271=759|10=189|8=FIX.4.4|9=138|35=F|34=110|49=BUY_SIDE_8XKV|56=SELL_SIDE_YXTZ|52=20251017-22:18:25.855|11=G3UDQ4YZDT|41=Z039A1F7PF|55=AAPL|54=2|60=20251017-22:18:25.855|10=024|8=FIX.4.4|9=176|35=8|34=107|49=SELL_SIDE_WH3P|56=BUY_SIDE_ZZTB|52=20251017-22:18:25.905|11=XB2NXBG8N2|55=META|39=2|150=2|14=2804|151=607|17=Y23VE7POB9UL|37=B9JWRFPH0U|60=20251017-22:18:25.905|10=247|8=FIX.4.4|9=154|35=D|34=116|49=BUY_SIDE_NXG1|56=SELL_SIDE_ZE6W|52=20251017-22:18:25.955|11=B0T0GU57TG|55=GBPUSD|54=1|38=2744|40=2|59=4|60=20251017-22:18:25.955|44=431.79|10=030|8=FIX.4.4|9=152|35=D|34=117|49=BUY_SIDE_NXG1|56=SELL_SIDE_ZE6W|52=20251017-22:18:26.005|11=S0AJQ07YTW|55=NFLX|54=2|38=1878|40=4|59=3|60=20251017-22:18:26.005|44=329.68|10=180|8=FIX.4.4|9=142|35=D|34=108|49=BUY_SIDE_ZZTB|56=SELL_SIDE_WH3P|52=20251017-22:18:26.055|11=7HHPCZ64GB|55=CLX5|54=1|38=2747|40=1|59=0|60=20251017-22:18:26.055|10=181|8=FIX.4.4|9=152|35=D|34=109|49=BUY_SIDE_ZZTB|56=SELL_SIDE_WH3P|52=20251017-22:18:26.105|11=OUZ9TFBGX5|55=GOOG|54=2|38=1545|40=3|59=3|60=20251017-22:18:26.105|44=311.22|10=205|8=FIX.4.4|9=138|35=F|34=126|49=BUY_SIDE_KU3Q|56=SELL_SIDE_M9E7|52=20251017-22:18:26.155|11=KQ3KPIULPJ|41=OKZ8V2RUAQ|55=CLX5|54=2|60=20251017-22:18:26.155|10=036|8=FIX.4.4|9=152|35=D|34=127|49=BUY_SIDE_KU3Q|56=SELL_SIDE_M9E7|52=20251017-22:18:26.205|11=T16ZAALZ9I|55=AAPL|54=1|38=2235|40=1|59=4|60=20251017-22:18:26.205|44=400.04|10=077|8=FIX.4.4|9=194|35=8|34=118|49=SELL_SIDE_ZE6W|56=BUY_SIDE_NXG1|52=20251017-22:18:26.255|11=KYLM6QOQGE|55=ESZ5|39=0|150=0|14=245|151=2481|17=MEN82ZDA4VYH|37=CGS4NTE963|60=20251017-22:18:26.255|31=327.42|32=4434|10=035|8=FIX.4.4|9=72|35=0|34=128|49=BUY_SIDE_KU3Q|56=SELL_SIDE_M9E7|52=20251017-22:18:26.305|10=074|8=FIX.4.4|9=146|35=G|34=129|49=BUY_SIDE_KU3Q|56=SELL_SIDE_M9E7|52=20251017-22:18:26.355|11=S2PEVXCIW8|41=Y2KSUML4NW|55=AAPL|54=1|38=1252|60=20251017-22:18:26.355|10=151|8=FIX.4.4|9=120|35=X|34=130|49=SELL_SIDE_M9E7|56=BUY_SIDE_KU3Q|52=20251017-22:18:26.405|268=1|269=1|279=2|55=USDJPY|270=177.02|271=2802|10=248|8=FIX.4.4|9=153|35=D|34=119|49=BUY_SIDE_NXG1|56=SELL_SIDE_ZE6W|52=20251017-22:18:26.455|11=E7WTTY6YUL|55=USDJPY|54=2|38=3435|40=1|59=3|60=20251017-22:18:26.455|44=35.69|10=105|8=FIX.4.4|9=118|35=X|34=120|49=SELL_SIDE_ZE6W|56=BUY_SIDE_NXG1|52=20251017-22:18:26.505|268=1|269=2|279=1|55=NFLX|270=460.68|271=3012|10=125|8=FIX.4.4|9=140|35=W|34=131|49=SELL_SIDE_M9E7|56=BUY_SIDE_KU3Q|52=20251017-22:18:26.555|55=GBPUSD|268=2|269=0|270=128.88|271=2494|269=1|270=264.23|271=4674|10=168|8=FIX.4.4|9=176|35=8|34=132|49=SELL_SIDE_M9E7|56=BUY_SIDE_KU3Q|52=20251017-22:18:26.605|11=AKL2F1DRM5|55=NVDA|39=2|150=2|14=2097|151=948|17=34MPJAUJQECF|37=UCGVAG6OBJ|60=20251017-22:18:26.605|10=158|8=FIX.4.4|9=137|35=W|34=133|49=SELL_SIDE_M9E7|56=BUY_SIDE_KU3Q|52=20251017-22:18:26.655|55=JPM|268=2|269=0|270=359.80|271=3021|269=1|270=177.07|271=3847|10=202|8=FIX.4.4|9=136|35=W|34=110|49=SELL_SIDE_WH3P|56=BUY_SIDE_ZZTB|52=20251017-22:18:26.705|55=JPM|268=2|269=0|270=351.38|271=1696|269=1|270=287.34|271=228|10=217|8=FIX.4.4|9=72|35=0|34=121|49=BUY_SIDE_NXG1|56=SELL_SIDE_ZE6W|52=20251017-22:18:26.755|10=112|8=FIX.4.4|9=138|35=F|34=122|49=BUY_SIDE_NXG1|56=SELL_SIDE_ZE6W|52=20251017-22:18:26.805|11=OW6YX79D16|41=3C60M9W8RP|55=MSFT|54=1|60=20251017-22:18:26.805|10=197|8=FIX.4.4|9=120|35=X|34=111|49=SELL_SIDE_WH3P|56=BUY_SIDE_ZZTB|52=20251017-22:18:26.855|268=1|269=2|279=2|55=USDJPY|270=247.41|271=1799|10=086|8=FIX.4.4|9=142|35=D|34=134|49=BUY_SIDE_KU3Q|56=SELL_SIDE_M9E7|52=20251017-22:18:26.905|11=Z599G6FDFG|55=CLX5|54=2|38=3878|40=3|59=0|60=20251017-22:18:26.905|10=109|8=FIX.4.4|9=117|35=X|34=135|49=SELL_SIDE_M9E7|56=BUY_SIDE_KU3Q|52=20251017-22:18:26.955|268=1|269=1|279=1|55=AMZN|270=49.02|271=3202|10=044|8=FIX.4.4|9=137|35=W|34=111|49=SELL_SIDE_YXTZ|56=BUY_SIDE_8XKV|52=20251017-22:18:27.005|55=AMZN|268=2|269=0|270=82.51|271=3029|269=1|270=134.33|271=1547|10=055|8=FIX.4.4|9=135|35=W|34=123|49=SELL_SIDE_ZE6W|56=BUY_SIDE_NXG1|52=20251017-22:18:27.055|55=CLX5|268=2|269=0|270=222.72|271=4397|269=1|270=6.35|271=976|10=138|8=FIX.4.4|9=177|35=8|34=136|49=SELL_SIDE_M9E7|56=BUY_SIDE_KU3Q|52=20251017-22:18:27.105|11=EFU1Z5DAD3|55=AMZN|39=0|150=0|14=3263|151=1750|17=2S1G7CNE3N48|37=CF9ZXYR5Y5|60=20251017-22:18:27.105|10=137|8=FIX.4.4|9=193|35=8|34=124|49=SELL_SIDE_ZE6W|56=BUY_SIDE_NXG1|52=20251017-22:18:27.155|11=E5IIJAFDBK|55=SPY|39=0|150=0|14=1690|151=863|17=LKYP379X9FI1|37=18B915I0BG|60=20251017-22:18:27.155|31=352.19|32=4973|10=085|8=FIX.4.4|9=194|35=8|34=112|49=SELL_SIDE_WH3P|56=BUY_SIDE_ZZTB|52=20251017-22:18:27.205|11=LML3CXUVRB|55=JPM|39=1|150=1|14=3423|151=1913|17=7TASK0SBAU7O|37=4P5QZZDLKV|60=20251017-22:18:27.205|31=255.10|32=2740|10=112|8=FIX.4.4|9=72|35=0|34=113|49=BUY_SIDE_ZZTB|56=SELL_SIDE_WH3P|52=20251017-22:18:27.255|10=143|8=FIX.4.4|9=91|35=5|34=112|49=BUY_SIDE_8XKV|56=SELL_SIDE_YXTZ|52=20251017-22:18:27.305|58=Session closing|10=082|8=FIX.4.4|9=117|35=X|34=114|49=SELL_SIDE_WH3P|56=BUY_SIDE_ZZTB|52=20251017-22:18:27.355|268=1|269=2|279=1|55=NQZ5|270=299.21|271=814|10=113|8=FIX.4.4|9=72|35=0|34=125|49=BUY_SIDE_NXG1|56=SELL_SIDE_ZE6W|52=20251017-22:18:27.405|10=109|8=FIX.4.4|9=152|35=D|34=126|49=BUY_SIDE_NXG1|56=SELL_SIDE_ZE6W|52=20251017-22:18:27.455|11=S347BGF54C|55=NVDA|54=2|38=4669|40=3|59=3|60=20251017-22:18:27.455|44=408.68|10=089|8=FIX.4.4|9=120|35=X|34=115|49=SELL_SIDE_WH3P|56=BUY_SIDE_ZZTB|52=20251017-22:18:27.505|268=1|269=0|279=2|55=BTCUSD|270=183.32|271=1777|10=050|8=FIX.4.4|9=117|35=X|34=113|49=SELL_SIDE_YXTZ|56=BUY_SIDE_8XKV|52=20251017-22:18:27.555|268=1|269=0|279=1|55=NFLX|270=54.37|271=3768|10=165|8=FIX.4.4|9=117|35=X|34=114|49=SELL_SIDE_YXTZ|56=BUY_SIDE_8XKV|52=20251017-22:18:27.605|268=1|269=0|279=2|55=NFLX|270=192.50|271=926|10=154|8=FIX.4.4|9=141|35=D|34=137|49=BUY_SIDE_KU3Q|56=SELL_SIDE_M9E7|52=20251017-22:18:27.655|11=HA3OMRNTVH|55=ESZ5|54=1|38=546|40=2|59=0|60=20251017-22:18:27.655|10=152|8=FIX.4.4|9=194|35=8|34=115|49=SELL_SIDE_YXTZ|56=BUY_SIDE_8XKV|52=20251017-22:18:27.705|11=OHN73OZIIP|55=TSLA|39=0|150=0|14=1126|151=3549|17=2SQDGBTG6VAJ|37=GJSHFUH0GM|60=20251017-22:18:27.705|31=469.24|32=543|10=162|8=FIX.4.4|9=91|35=5|34=138|49=BUY_SIDE_KU3Q|56=SELL_SIDE_M9E7|52=20251017-22:18:27.755|58=Session closing|10=249|8=FIX.4.4|9=144|35=D|34=127|49=BUY_SIDE_NXG1|56=SELL_SIDE_ZE6W|52=20251017-22:18:27.805|11=GTM1Z7LBCL|55=USDJPY|54=2|38=4292|40=2|59=0|60=20251017-22:18:27.805|10=128|8=FIX.4.4|9=194|35=8|34=116|49=SELL_SIDE_YXTZ|56=BUY_SIDE_8XKV|52=20251017-22:18:27.855|11=MVBIGDINW2|55=JPM|39=2|150=2|14=3263|151=1865|17=W5D6807SID51|37=ZTXI12GTZW|60=20251017-22:18:27.855|31=271.21|32=2549|10=085|8=FIX.4.4|9=72|35=0|34=117|49=BUY_SIDE_8XKV|56=SELL_SIDE_YXTZ|52=20251017-22:18:27.905|10=185|8=FIX.4.4|9=138|35=W|34=116|49=SELL_SIDE_WH3P|56=BUY_SIDE_ZZTB|52=20251017-22:18:27.955|55=AAPL|268=2|269=0|270=245.87|271=3487|269=1|270=251.95|271=2696|10=095|8=FIX.4.4|9=72|35=0|34=117|49=BUY_SIDE_ZZTB|56=SELL_SIDE_WH3P|52=20251017-22:18:28.005|10=141|8=FIX.4.4|9=152|35=D|34=118|49=BUY_SIDE_ZZTB|56=SELL_SIDE_WH3P|52=20251017-22:18:28.055|11=G290MVVICI|55=TSLA|54=2|38=2639|40=2|59=3|60=20251017-22:18:28.055|44=233.37|10=183|8=FIX.4.4|9=142|35=D|34=118|49=BUY_SIDE_8XKV|56=SELL_SIDE_YXTZ|52=20251017-22:18:28.105|11=NLZZTDWPHL|55=AMZN|54=1|38=3917|40=3|59=0|60=20251017-22:18:28.105|10=108|8=FIX.4.4|9=152|35=D|34=119|49=BUY_SIDE_ZZTB|56=SELL_SIDE_WH3P|52=20251017-22:18:28.155|11=4AF1J21S9X|55=META|54=1|38=2599|40=4|59=3|60=20251017-22:18:28.155|44=493.72|10=135|8=FIX.4.4|9=72|35=0|34=128|49=BUY_SIDE_NXG1|56=SELL_SIDE_ZE6W|52=20251017-22:18:28.205|10=111|8=FIX.4.4|9=194|35=8|34=120|49=SELL_SIDE_WH3P|56=BUY_SIDE_ZZTB|52=20251017-22:18:28.255|11=6WRNDBBZ0H|55=GOOG|39=1|150=1|14=190|151=2583|17=N6JJAM5VO43R|37=6KIKG57DVO|60=20251017-22:18:28.255|31=371.31|32=4161|10=024|8=FIX.4.4|9=118|35=X|34=119|49=SELL_SIDE_YXTZ|56=BUY_SIDE_8XKV|52=20251017-22:18:28.305|268=1|269=2|279=1|55=MSFT|270=141.73|271=1412|10=199|8=FIX.4.4|9=194|35=8|34=139|49=SELL_SIDE_M9E7|56=BUY_SIDE_KU3Q|52=20251017-22:18:28.355|11=GNAC5FA9OQ|55=MSFT|39=0|150=0|14=3851|151=833|17=BZWJXAQM6AV6|37=LUW6GTO9HH|60=20251017-22:18:28.355|31=403.58|32=4778|10=085|8=FIX.4.4|9=177|35=8|34=129|49=SELL_SIDE_ZE6W|56=BUY_SIDE_NXG1|52=20251017-22:18:28.405|11=AHUPVZIENV|55=EURUSD|39=0|150=0|14=3346|151=67|17=XKQEPN3PY5SY|37=5938NM0E5J|60=20251017-22:18:28.405|10=146|8=FIX.4.4|9=72|35=0|34=130|49=BUY_SIDE_NXG1|56=SELL_SIDE_ZE6W|52=20251017-22:18:28.455|10=111|8=FIX.4.4|9=197|35=8|34=140|49=SELL_SIDE_M9E7|56=BUY_SIDE_KU3Q|52=20251017-22:18:28.505|11=3X1TJLZGK4|55=EURUSD|39=2|150=2|14=1749|151=3901|17=MB4OB7Z1CN3Q|37=5QIAHG2J70|60=20251017-22:18:28.505|31=265.24|32=4381|10=129|8=FIX.4.4|9=135|35=W|34=141|49=SELL_SIDE_M9E7|56=BUY_SIDE_KU3Q|52=20251017-22:18:28.555|55=NFLX|268=2|269=0|270=204.36|271=432|269=1|270=103.44|271=43|10=105|8=FIX.4.4|9=146|35=G|34=131|49=BUY_SIDE_NXG1|56=SELL_SIDE_ZE6W|52=20251017-22:18:28.605|11=CTI3FLVX03|41=A56EA6JWGV|55=ESZ5|54=2|38=4251|60=20251017-22:18:28.605|10=073|8=FIX.4.4|9=72|35=0|34=120|49=BUY_SIDE_8XKV|56=SELL_SIDE_YXTZ|52=20251017-22:18:28.655|10=182|8=FIX.4.4|9=90|35=A|34=121|49=BUY_SIDE_8XKV|56=SELL_SIDE_YXTZ|52=20251017-22:18:28.705|98=0|108=30|141=Y|10=010|8=FIX.4.4|9=195|35=8|34=122|49=SELL_SIDE_YXTZ|56=BUY_SIDE_8XKV|52=20251017-22:18:28.755|11=BAGRB11XNB|55=TSLA|39=2|150=2|14=1211|151=3789|17=54JLTVRYXOWL|37=DPVHMM0VAG|60=20251017-22:18:28.755|31=385.95|32=3984|10=017|8=FIX.4.4|9=177|35=8|34=121|49=SELL_SIDE_WH3P|56=BUY_SIDE_ZZTB|52=20251017-22:18:28.805|11=ILOS22OFYY|55=META|39=1|150=1|14=2102|151=2117|17=N16A71BQ5ND4|37=T3PNU7OP13|60=20251017-22:18:28.805|10=206|8=FIX.4.4|9=144|35=D|34=122|49=BUY_SIDE_ZZTB|56=SELL_SIDE_WH3P|52=20251017-22:18:28.855|11=54P85CPVOG|55=EURUSD|54=1|38=3344|40=1|59=1|60=20251017-22:18:28.855|10=124|8=FIX.4.4|9=140|35=F|34=142|49=BUY_SIDE_KU3Q|56=SELL_SIDE_M9E7|52=20251017-22:18:28.905|11=PTNL3A9ZOE|41=8U6YCLCM0L|55=GBPUSD|54=1|60=20251017-22:18:28.905|10=130|8=FIX.4.4|9=72|35=0|34=143|49=BUY_SIDE_KU3Q|56=SELL_SIDE_M9E7|52=20251017-22:18:28.955|10=084|8=FIX.4.4|9=142|35=D|34=144|49=BUY_SIDE_KU3Q|56=SELL_SIDE_M9E7|52=20251017-22:18:29.005|11=GPSIUCL8IZ|55=TSLA|54=2|38=1019|40=2|59=0|60=20251017-22:18:29.005|10=199|8=FIX.4.4|9=91|35=5|34=132|49=BUY_SIDE_NXG1|56=SELL_SIDE_ZE6W|52=20251017-22:18:29.055|58=Session closing|10=018|8=FIX.4.4|9=197|35=8|34=123|49=SELL_SIDE_YXTZ|56=BUY_SIDE_8XKV|52=20251017-22:18:29.105|11=I0MXSTRF54|55=EURUSD|39=0|150=0|14=2424|151=1513|17=65ICPBVMW6DA|37=BI29PO59LA|60=20251017-22:18:29.105|31=381.16|32=2058|10=246|8=FIX.4.4|9=141|35=D|34=133|49=BUY_SIDE_NXG1|56=SELL_SIDE_ZE6W|52=20251017-22:18:29.155|11=C0SWA69I99|55=NVDA|54=2|38=793|40=2|59=0|60=20251017-22:18:29.155|10=087|8=FIX.4.4|9=144|35=D|34=124|49=BUY_SIDE_8XKV|56=SELL_SIDE_YXTZ|52=20251017-22:18:29.205|11=8UE60GI28G|55=EURUSD|54=2|38=1806|40=4|59=0|60=20251017-22:18:29.205|10=102|8=FIX.4.4|9=194|35=8|34=134|49=SELL_SIDE_ZE6W|56=BUY_SIDE_NXG1|52=20251017-22:18:29.255|11=V9VFZ37V38|55=JPM|39=1|150=1|14=2217|151=3527|17=GWG6N4UILUMV|37=UCNXV7YWLT|60=20251017-22:18:29.255|31=306.73|32=2845|10=141|8=FIX.4.4|9=120|35=X|34=123|49=SELL_SIDE_WH3P|56=BUY_SIDE_ZZTB|52=20251017-22:18:29.305|268=1|269=1|279=0|55=ETHUSD|270=373.93|271=1327|10=055|8=FIX.4.4|9=192|35=8|34=135|49=SELL_SIDE_ZE6W|56=BUY_SIDE_NXG1|52=20251017-22:18:29.355|11=I1G6AX3W61|55=GCZ5|39=1|150=1|14=263|151=1459|17=JYWWV8BMQAK7|37=J7RHVSMHEQ|60=20251017-22:18:29.355|31=28.15|32=223|10=202|8=FIX.4.4|9=194|35=8|34=124|49=SELL_SIDE_WH3P|56=BUY_SIDE_ZZTB|52=20251017-22:18:29.405|11=5BJSX0YZ0V|55=NFLX|39=2|150=2|14=1523|151=497|17=X7H456N8DLHT|37=NQV4UFDBML|60=20251017-22:18:29.405|31=489.30|32=1914|10=100|8=FIX.4.4|9=190|35=8|34=136|49=SELL_SIDE_ZE6W|56=BUY_SIDE_NXG1|52=20251017-22:18:29.455|11=C2Q77WRW1K|55=SPY|39=1|150=1|14=2|151=3136|17=W36SADW3OO5X|37=TDEL940HOK|60=20251017-22:18:29.455|31=439.84|32=148|10=052|8=FIX.4.4|9=193|35=8|34=137|49=SELL_SIDE_ZE6W|56=BUY_SIDE_NXG1|52=20251017-22:18:29.505|11=KV6CFH4FOL|55=AAPL|39=0|150=0|14=808|151=636|17=PPCJH8H4DF6A|37=GY9W8O7EWO|60=20251017-22:18:29.505|31=373.25|32=2210|10=203|8=FIX.4.4|9=137|35=F|34=138|49=BUY_SIDE_NXG1|56=SELL_SIDE_ZE6W|52=20251017-22:18:29.555|11=62OM79T9I8|41=1402J9FHK5|55=JPM|54=2|60=20251017-22:18:29.555|10=034|8=FIX.4.4|9=195|35=8|34=125|49=SELL_SIDE_WH3P|56=BUY_SIDE_ZZTB|52=20251017-22:18:29.605|11=HTNX8E85WM|55=GOOG|39=0|150=0|14=2120|151=1683|17=E2R5KYXSBBA6|37=VWB15ZD5IW|60=20251017-22:18:29.605|31=170.08|32=1621|10=117|8=FIX.4.4|9=72|35=0|34=145|49=BUY_SIDE_KU3Q|56=SELL_SIDE_M9E7|52=20251017-22:18:29.655|10=084|8=FIX.4.4|9=90|35=A|34=139|49=BUY_SIDE_NXG1|56=SELL_SIDE_ZE6W|52=20251017-22:18:29.705|98=0|108=30|141=Y|10=206|8=FIX.4.4|9=150|35=D|34=140|49=BUY_SIDE_NXG1|56=SELL_SIDE_ZE6W|52=20251017-22:18:29.755|11=DXT77BR2JX|55=JPM|54=2|38=1831|40=1|59=4|60=20251017-22:18:29.755|44=54.90|10=048|8=FIX.4.4|9=191|35=8|34=126|49=SELL_SIDE_WH3P|56=BUY_SIDE_ZZTB|52=20251017-22:18:29.805|11=395MFFSYXI|55=JPM|39=0|150=0|14=3111|151=127|17=5UK7WLRIBRIU|37=BJDG3BJZEO|60=20251017-22:18:29.805|31=8.13|32=1436|10=193|8=FIX.4.4|9=194|35=8|34=125|49=SELL_SIDE_YXTZ|56=BUY_SIDE_8XKV|52=20251017-22:18:29.855|11=Z7GCU7XH5A|55=AAPL|39=1|150=1|14=3929|151=1081|17=UZCHV059CEI9|37=D3ECV9I0C5|60=20251017-22:18:29.855|31=461.35|32=813|10=013|8=FIX.4.4|9=152|35=D|34=127|49=BUY_SIDE_ZZTB|56=SELL_SIDE_WH3P|52=20251017-22:18:29.905|11=KBI1Y94WXV|55=NFLX|54=1|38=1718|40=2|59=4|60=20251017-22:18:29.905|44=380.22|10=225|8=FIX.4.4|9=117|35=X|34=128|49=SELL_SIDE_WH3P|56=BUY_SIDE_ZZTB|52=20251017-22:18:29.955|268=1|269=0|279=0|55=GOOG|270=268.56|271=785|10=132|8=FIX.4.4|9=118|35=X|34=126|49=SELL_SIDE_YXTZ|56=BUY_SIDE_8XKV|52=20251017-22:18:30.005|268=1|269=2|279=0|55=GCZ5|270=188.41|271=3487|10=173|8=FIX.4.4|9=138|35=F|34=129|49=BUY_SIDE_ZZTB|56=SELL_SIDE_WH3P|52=20251017-22:18:30.055|11=6GDZ15J1ZA|41=5GJCAT0T1Y|55=CLX5|54=2|60=20251017-22:18:30.055|10=201|8=FIX.4.4|9=140|35=F|34=127|49=BUY_SIDE_8XKV|56=SELL_SIDE_YXTZ|52=20251017-22:18:30.105|11=87TJ5SC1HH|41=4F9MPAH1FX|55=BTCUSD|54=2|60=20251017-22:18:30.105|10=131|8=FIX.4.4|9=145|35=G|34=146|49=BUY_SIDE_KU3Q|56=SELL_SIDE_M9E7|52=20251017-22:18:30.155|11=4F2Y9QZJHB|41=CAMYHLARZQ|55=META|54=1|38=443|60=20251017-22:18:30.155|10=071|8=FIX.4.4|9=72|35=0|34=147|49=BUY_SIDE_KU3Q|56=SELL_SIDE_M9E7|52=20251017-22:18:30.205|10=069|8=FIX.4.4|9=142|35=D|34=148|49=BUY_SIDE_KU3Q|56=SELL_SIDE_M9E7|52=20251017-22:18:30.255|11=RQPLIGZWOD|55=NFLX|54=2|38=3004|40=2|59=0|60=20251017-22:18:30.255|10=234|8=FIX.4.4|9=140|35=F|34=141|49=BUY_SIDE_NXG1|56=SELL_SIDE_ZE6W|52=20251017-22:18:30.305|11=NU4T3ALR1U|41=PZ8KLMD416|55=BTCUSD|54=2|60=20251017-22:18:30.305|10=100|8=FIX.4.4|9=195|35=8|34=130|49=SELL_SIDE_WH3P|56=BUY_SIDE_ZZTB|52=20251017-22:18:30.355|11=L0ZFFKBKYV|55=MSFT|39=1|150=1|14=3500|151=1175|17=JMHPRKX8H58C|37=Y5YYV2G8RX|60=20251017-22:18:30.355|31=268.92|32=2595|10=216|8=FIX.4.4|9=72|35=0|34=131|49=BUY_SIDE_ZZTB|56=SELL_SIDE_WH3P|52=20251017-22:18:30.405|10=134|8=FIX.4.4|9=142|35=D|34=142|49=BUY_SIDE_NXG1|56=SELL_SIDE_ZE6W|52=20251017-22:18:30.455|11=T8TYBOZO0P|55=GOOG|54=2|38=1993|40=4|59=0|60=20251017-22:18:30.455|10=241|8=FIX.4.4|9=194|35=8|34=143|49=SELL_SIDE_ZE6W|56=BUY_SIDE_NXG1|52=20251017-22:18:30.505|11=NCJRSIBB9P|55=MSFT|39=1|150=1|14=1256|151=1393|17=YDE5KX31YJ04|37=J27T0R0YR9|60=20251017-22:18:30.505|31=228.64|32=953|10=236|8=FIX.4.4|9=72|35=0|34=128|49=BUY_SIDE_8XKV|56=SELL_SIDE_YXTZ|52=20251017-22:18:30.555|10=182|8=FIX.4.4|9=136|35=W|34=129|49=SELL_SIDE_YXTZ|56=BUY_SIDE_8XKV|52=20251017-22:18:30.605|55=BAC|268=2|269=0|270=303.92|271=1196|269=1|270=92.92|271=3385|10=221|8=FIX.4.4|9=85|35=2|34=130|49=BUY_SIDE_8XKV|56=SELL_SIDE_YXTZ|52=20251017-22:18:30.655|7=116|16=129|10=004|8=FIX.4.4|9=142|35=D|34=132|49=BUY_SIDE_ZZTB|56=SELL_SIDE_WH3P|52=20251017-22:18:30.705|11=QVMCZBWGT4|55=AAPL|54=2|38=2675|40=4|59=0|60=20251017-22:18:30.705|10=004|8=FIX.4.4|9=194|35=8|34=133|49=SELL_SIDE_WH3P|56=BUY_SIDE_ZZTB|52=20251017-22:18:30.755|11=HUEWKT19FO|55=NQZ5|39=0|150=0|14=3642|151=2852|17=WR8VQHUYM47N|37=SS1F41IVLO|60=20251017-22:18:30.755|31=252.90|32=970|10=137|8=FIX.4.4|9=119|35=X|34=131|49=SELL_SIDE_YXTZ|56=BUY_SIDE_8XKV|52=20251017-22:18:30.805|268=1|269=1|279=2|55=USDJPY|270=405.45|271=964|10=066|8=FIX.4.4|9=154|35=D|34=144|49=BUY_SIDE_NXG1|56=SELL_SIDE_ZE6W|52=20251017-22:18:30.855|11=W0YCJLOOJA|55=EURUSD|54=2|38=3064|40=2|59=3|60=20251017-22:18:30.855|44=290.96|10=111|8=FIX.4.4|9=151|35=D|34=134|49=BUY_SIDE_ZZTB|56=SELL_SIDE_WH3P|52=20251017-22:18:30.905|11=3KFB68COE4|55=NFLX|54=2|38=292|40=1|59=3|60=20251017-22:18:30.905|44=177.60|10=076|8=FIX.4.4|9=145|35=G|34=149|49=BUY_SIDE_KU3Q|56=SELL_SIDE_M9E7|52=20251017-22:18:30.955|11=8VYV50V2CO|41=BA6S6XAJ8F|55=SPY|54=1|38=3720|60=20251017-22:18:30.955|10=006|8=FIX.4.4|9=140|35=F|34=145|49=BUY_SIDE_NXG1|56=SELL_SIDE_ZE6W|52=20251017-22:18:31.005|11=KMT0O4PZC6|41=7AZ84E6N8Y|55=USDJPY|54=2|60=20251017-22:18:31.005|10=112|8=FIX.4.4|9=72|35=0|34=132|49=BUY_SIDE_8XKV|56=SELL_SIDE_YXTZ|52=20251017-22:18:31.055|10=173|8=FIX.4.4|9=196|35=8|34=135|49=SELL_SIDE_WH3P|56=BUY_SIDE_ZZTB|52=20251017-22:18:31.105|11=YSUT3665AU|55=BTCUSD|39=2|150=2|14=1944|151=2488|17=XEGA34HRIED8|37=6EFRGJWC75|60=20251017-22:18:31.105|31=27.58|32=2619|10=164|8=FIX.4.4|9=138|35=W|34=150|49=SELL_SIDE_M9E7|56=BUY_SIDE_KU3Q|52=20251017-22:18:31.155|55=GBPUSD|268=2|269=0|270=209.23|271=802|269=1|270=90.15|271=2695|10=051|8=FIX.4.4|9=118|35=X|34=133|49=SELL_SIDE_YXTZ|56=BUY_SIDE_8XKV|52=20251017-22:18:31.205|268=1|269=1|279=0|55=NQZ5|270=109.20|271=2363|10=176|8=FIX.4.4|9=152|35=D|34=134|49=BUY_SIDE_8XKV|56=SELL_SIDE_YXTZ|52=20251017-22:18:31.255|11=QMSC33LC11|55=NFLX|54=1|38=4029|40=4|59=4|60=20251017-22:18:31.255|44=153.47|10=175|8=FIX.4.4|9=120|35=X|34=136|49=SELL_SIDE_WH3P|56=BUY_SIDE_ZZTB|52=20251017-22:18:31.305|268=1|269=2|279=0|55=ETHUSD|270=160.76|271=1752|10=050|8=FIX.4.4|9=117|35=X|34=146|49=SELL_SIDE_ZE6W|56=BUY_SIDE_NXG1|52=20251017-22:18:31.355|268=1|269=2|279=1|55=JPM|270=119.80|271=4054|10=052|8=FIX.4.4|9=177|35=8|34=137|49=SELL_SIDE_WH3P|56=BUY_SIDE_ZZTB|52=20251017-22:18:31.405|11=YLPMZ6LN6U|55=NQZ5|39=1|150=1|14=1246|151=1273|17=QBXSP2H43ZSB|37=5SAXL8W1BY|60=20251017-22:18:31.405|10=109|8=FIX.4.4|9=194|35=8|34=138|49=SELL_SIDE_WH3P|56=BUY_SIDE_ZZTB|52=20251017-22:18:31.455|11=ER71STTGWV|55=TSLA|39=0|150=0|14=227|151=1541|17=JRAWMDBL42ZK|37=1YQJZT05Y5|60=20251017-22:18:31.455|31=264.51|32=4955|10=136|8=FIX.4.4|9=120|35=X|34=147|49=SELL_SIDE_ZE6W|56=BUY_SIDE_NXG1|52=20251017-22:18:31.505|268=1|269=1|279=2|55=BTCUSD|270=173.31|271=1478|10=013|8=FIX.4.4|9=117|35=X|34=151|49=SELL_SIDE_M9E7|56=BUY_SIDE_KU3Q|52=20251017-22:18:31.555|268=1|269=0|279=2|55=ESZ5|270=68.85|271=1355|10=038|8=FIX.4.4|9=85|35=1|34=152|49=BUY_SIDE_KU3Q|56=SELL_SIDE_M9E7|52=20251017-22:18:31.605|112=F2X7M726|10=016|8=FIX.4.4|9=138|35=F|34=139|49=BUY_SIDE_ZZTB|56=SELL_SIDE_WH3P|52=20251017-22:18:31.655|11=B5RZ4422VV|41=M49EQIU69W|55=NQZ5|54=1|60=20251017-22:18:31.655|10=245|8=FIX.4.4|9=140|35=F|34=153|49=BUY_SIDE_KU3Q|56=SELL_SIDE_M9E7|52=20251017-22:18:31.705|11=M4M3DJMLIQ|41=UTKFY9J0T3|55=GBPUSD|54=1|60=20251017-22:18:31.705|10=115|8=FIX.4.4|9=142|35=D|34=148|49=BUY_SIDE_NXG1|56=SELL_SIDE_ZE6W|52=20251017-22:18:31.755|11=C1M536TM0B|55=AAPL|54=2|38=2563|40=1|59=0|60=20251017-22:18:31.755|10=103|8=FIX.4.4|9=90|35=A|34=135|49=BUY_SIDE_8XKV|56=SELL_SIDE_YXTZ|52=20251017-22:18:31.805|98=0|108=30|141=Y|10=010|8=FIX.4.4|9=91|35=5|34=149|49=BUY_SIDE_NXG1|56=SELL_SIDE_ZE6W|52=20251017-22:18:31.855|58=Session closing|10=027|8=FIX.4.4|9=178|35=8|34=154|49=SELL_SIDE_M9E7|56=BUY_SIDE_KU3Q|52=20251017-22:18:31.905|11=FPJ32RO69U|55=GBPUSD|39=1|150=1|14=579|151=1201|17=N3F7OKYRO2IX|37=GUIR0S5YOD|60=20251017-22:18:31.905|10=100|8=FIX.4.4|9=138|35=W|34=155|49=SELL_SIDE_M9E7|56=BUY_SIDE_KU3Q|52=20251017-22:18:31.955|55=MSFT|268=2|269=0|270=482.01|271=3019|269=1|270=364.79|271=3442|10=028|8=FIX.4.4|9=90|35=A|34=150|49=BUY_SIDE_NXG1|56=SELL_SIDE_ZE6W|52=20251017-22:18:32.005|98=0|108=30|141=Y|10=186|8=FIX.4.4|9=144|35=D|34=136|49=BUY_SIDE_8XKV|56=SELL_SIDE_YXTZ|52=20251017-22:18:32.055|11=3QGFW02NY1|55=BTCUSD|54=2|38=3178|40=1|59=0|60=20251017-22:18:32.055|10=122|8=FIX.4.4|9=146|35=G|34=156|49=BUY_SIDE_KU3Q|56=SELL_SIDE_M9E7|52=20251017-22:18:32.105|11=1AR9PKYZ8I|41=A7PXCJE35D|55=AAPL|54=1|38=2944|60=20251017-22:18:32.105|10=035|8=FIX.4.4|9=72|35=0|34=137|49=BUY_SIDE_8XKV|56=SELL_SIDE_YXTZ|52=20251017-22:18:32.155|10=180|8=FIX.4.4|9=118|35=X|34=138|49=SELL_SIDE_YXTZ|56=BUY_SIDE_8XKV|52=20251017-22:18:32.205|268=1|269=0|279=1|55=ESZ5|270=317.56|271=1146|10=183|8=FIX.4.4|9=72|35=0|34=151|49=BUY_SIDE_NXG1|56=SELL_SIDE_ZE6W|52=20251017-22:18:32.255|10=107|8=FIX.4.4|9=195|35=8|34=139|49=SELL_SIDE_YXTZ|56=BUY_SIDE_8XKV|52=20251017-22:18:32.305|11=5M6HFK9AKE|55=AAPL|39=1|150=1|14=3765|151=2078|17=OEMVYFOGF1BW|37=W9EWEUIR2Y|60=20251017-22:18:32.305|31=464.38|32=1956|10=198|8=FIX.4.4|9=142|35=D|34=140|49=BUY_SIDE_8XKV|56=SELL_SIDE_YXTZ|52=20251017-22:18:32.355|11=9E5T0T891T|55=NQZ5|54=1|38=4933|40=4|59=1|60=20251017-22:18:32.355|10=196|8=FIX.4.4|9=85|35=1|34=141|49=BUY_SIDE_8XKV|56=SELL_SIDE_YXTZ|52=20251017-22:18:32.405|112=N3BJCK5C|10=151|8=FIX.4.4|9=150|35=D|34=142|49=BUY_SIDE_8XKV|56=SELL_SIDE_YXTZ|52=20251017-22:18:32.455|11=5240SAL3A9|55=SPY|54=1|38=554|40=1|59=4|60=20251017-22:18:32.455|44=411.57|10=013|8=FIX.4.4|9=72|35=0|34=152|49=BUY_SIDE_NXG1|56=SELL_SIDE_ZE6W|52=20251017-22:18:32.505|10=106|8=FIX.4.4|9=192|35=8|34=140|49=SELL_SIDE_WH3P|56=BUY_SIDE_ZZTB|52=20251017-22:18:32.555|11=GIAVI9UN1V|55=TSLA|39=1|150=1|14=2830|151=879|17=MKTOH41QYB9E|37=Z67N45QGTR|60=20251017-22:18:32.555|31=229.20|32=80|10=241|8=FIX.4.4|9=154|35=D|34=153|49=BUY_SIDE_NXG1|56=SELL_SIDE_ZE6W|52=20251017-22:18:32.605|11=VI4ZM4NG8I|55=USDJPY|54=1|38=4507|40=4|59=3|60=20251017-22:18:32.605|44=166.31|10=073|8=FIX.4.4|9=152|35=D|34=154|49=BUY_SIDE_NXG1|56=SELL_SIDE_ZE6W|52=20251017-22:18:32.655|11=QT226SPMEC|55=NFLX|54=1|38=4690|40=3|59=4|60=20251017-22:18:32.655|44=288.09|10=171|8=FIX.4.4|9=143|35=D|34=143|49=BUY_SIDE_8XKV|56=SELL_SIDE_YXTZ|52=20251017-22:18:32.705|11=ONXBQ5M8PY|55=BTCUSD|54=1|38=217|40=1|59=1|60=20251017-22:18:32.705|10=139|8=FIX.4.4|9=144|35=D|34=157|49=BUY_SIDE_KU3Q|56=SELL_SIDE_M9E7|52=20251017-22:18:32.755|11=3A4D0YL7E7|55=ETHUSD|54=2|38=1598|40=3|59=1|60=20251017-22:18:32.755|10=002|8=FIX.4.4|9=152|35=D|34=158|49=BUY_SIDE_KU3Q|56=SELL_SIDE_M9E7|52=20251017-22:18:32.805|11=B0UGFNDM0X|55=NQZ5|54=1|38=4173|40=3|59=4|60=20251017-22:18:32.805|44=177.63|10=120|8=FIX.4.4|9=142|35=D|34=159|49=BUY_SIDE_KU3Q|56=SELL_SIDE_M9E7|52=20251017-22:18:32.855|11=U5W2OQQLUG|55=META|54=2|38=4483|40=4|59=1|60=20251017-22:18:32.855|10=211|8=FIX.4.4|9=146|35=G|34=155|49=BUY_SIDE_NXG1|56=SELL_SIDE_ZE6W|52=20251017-22:18:32.905|11=QFO7KXN81K|41=MF206W6HXT|55=CLX5|54=2|38=4007|60=20251017-22:18:32.905|10=081|8=FIX.4.4|9=72|35=0|34=160|49=BUY_SIDE_KU3Q|56=SELL_SIDE_M9E7|52=20251017-22:18:32.955|10=078|8=FIX.4.4|9=144|35=D|34=144|49=BUY_SIDE_8XKV|56=SELL_SIDE_YXTZ|52=20251017-22:18:33.005|11=R88QTI9WU3|55=BTCUSD|54=1|38=1020|40=1|59=1|60=20251017-22:18:33.005|10=135|8=FIX.4.4|9=136|35=W|34=145|49=SELL_SIDE_YXTZ|56=BUY_SIDE_8XKV|52=20251017-22:18:33.055|55=META|268=2|269=0|270=353.32|271=18|269=1|270=103.04|271=3702|10=240|8=FIX.4.4|9=195|35=8|34=156|49=SELL_SIDE_ZE6W|56=BUY_SIDE_NXG1|52=20251017-22:18:33.105|11=2QJANR041N|55=EURUSD|39=1|150=1|14=1187|151=119|17=P981TIQ10F88|37=VWF47QSQ8Z|60=20251017-22:18:33.105|31=362.09|32=210|10=032|8=FIX.4.4|9=152|35=D|34=141|49=BUY_SIDE_ZZTB|56=SELL_SIDE_WH3P|52=20251017-22:18:33.155|11=17UPYFMY81|55=CLX5|54=1|38=1095|40=1|59=3|60=20251017-22:18:33.155|44=367.49|10=164|8=FIX.4.4|9=194|35=8|34=146|49=SELL_SIDE_YXTZ|56=BUY_SIDE_8XKV|52=20251017-22:18:33.205|11=QRGHQFRLG8|55=JPM|39=1|150=1|14=1324|151=1054|17=3887BPQFI4PJ|37=L0B5IOKHOE|60=20251017-22:18:33.205|31=381.34|32=4264|10=030|8=FIX.4.4|9=138|35=F|34=157|49=BUY_SIDE_NXG1|56=SELL_SIDE_ZE6W|52=20251017-22:18:33.255|11=GJEPQ1YDO6|41=69CSUUNIJE|55=MSFT|54=1|60=20251017-22:18:33.255|10=043|8=FIX.4.4|9=149|35=D|34=142|49=BUY_SIDE_ZZTB|56=SELL_SIDE_WH3P|52=20251017-22:18:33.305|11=NIE1WMFYVG|55=BAC|54=1|38=721|40=1|59=4|60=20251017-22:18:33.305|44=47.28|10=021|8=FIX.4.4|9=142|35=D|34=147|49=BUY_SIDE_8XKV|56=SELL_SIDE_YXTZ|52=20251017-22:18:33.355|11=BO3DRW9J2O|55=GOOG|54=2|38=2499|40=4|59=1|60=20251017-22:18:33.355|10=005|8=FIX.4.4|9=194|35=8|34=158|49=SELL_SIDE_ZE6W|56=BUY_SIDE_NXG1|52=20251017-22:18:33.405|11=SBPV9AFRTL|55=AAPL|39=0|150=0|14=303|151=2342|17=VRC4VS3WAISU|37=9VSFPKFM3E|60=20251017-22:18:33.405|31=437.94|32=3746|10=122|8=FIX.4.4|9=148|35=G|34=161|49=BUY_SIDE_KU3Q|56=SELL_SIDE_M9E7|52=20251017-22:18:33.455|11=S7Z1LJ4F44|41=FFHRO03RHY|55=EURUSD|54=2|38=1206|60=20251017-22:18:33.455|10=210|8=FIX.4.4|9=193|35=8|34=162|49=SELL_SIDE_M9E7|56=BUY_SIDE_KU3Q|52=20251017-22:18:33.505|11=BBAKBAOQCV|55=JPM|39=0|150=0|14=2345|151=487|17=FNT240OLMX8V|37=PYRB5WVS2O|60=20251017-22:18:33.505|31=141.39|32=2878|10=243|8=FIX.4.4|9=142|35=D|34=159|49=BUY_SIDE_NXG1|56=SELL_SIDE_ZE6W|52=20251017-22:18:33.555|11=VQ7FTFYX1U|55=GOOG|54=2|38=1985|40=2|59=0|60=20251017-22:18:33.555|10=002|8=FIX.4.4|9=155|35=G|34=143|49=BUY_SIDE_ZZTB|56=SELL_SIDE_WH3P|52=20251017-22:18:33.605|11=1ZZPISFIUG|41=OXY5MCCZMA|55=SPY|54=1|38=3000|60=20251017-22:18:33.605|44=334.95|10=157|8=FIX.4.4|9=141|35=D|34=160|49=BUY_SIDE_NXG1|56=SELL_SIDE_ZE6W|52=20251017-22:18:33.655|11=XMFBWLDZUI|55=AMZN|54=2|38=100|40=2|59=1|60=20251017-22:18:33.655|10=215|8=FIX.4.4|9=85|35=2|34=163|49=BUY_SIDE_KU3Q|56=SELL_SIDE_M9E7|52=20251017-22:18:33.705|7=155|16=162|10=159|8=FIX.4.4|9=142|35=D|34=164|49=BUY_SIDE_KU3Q|56=SELL_SIDE_M9E7|52=20251017-22:18:33.755|11=36QEBPK6X6|55=MSFT|54=2|38=2602|40=3|59=1|60=20251017-22:18:33.755|10=140|8=FIX.4.4|9=155|35=G|34=165|49=BUY_SIDE_KU3Q|56=SELL_SIDE_M9E7|52=20251017-22:18:33.805|11=WFY1N29XTU|41=140R5IVQ2G|55=NQZ5|54=1|38=498|60=20251017-22:18:33.805|44=453.09|10=234|8=FIX.4.4|9=141|35=D|34=144|49=BUY_SIDE_ZZTB|56=SELL_SIDE_WH3P|52=20251017-22:18:33.855|11=TXUOZL9OC6|55=CLX5|54=2|38=103|40=3|59=1|60=20251017-22:18:33.855|10=212|8=FIX.4.4|9=118|35=X|34=145|49=SELL_SIDE_WH3P|56=BUY_SIDE_ZZTB|52=20251017-22:18:33.905|268=1|269=0|279=2|55=NFLX|270=121.62|271=1485|10=167|8=FIX.4.4|9=72|35=0|34=161|49=BUY_SIDE_NXG1|56=SELL_SIDE_ZE6W|52=20251017-22:18:33.955|10=116|8=FIX.4.4|9=117|35=X|34=148|49=SELL_SIDE_YXTZ|56=BUY_SIDE_8XKV|52=20251017-22:18:34.005|268=1|269=2|279=1|55=BAC|270=437.23|271=4204|10=083|8=FIX.4.4|9=72|35=0|34=166|49=BUY_SIDE_KU3Q|56=SELL_SIDE_M9E7|52=20251017-22:18:34.055|10=077|8=FIX.4.4|9=195|35=8|34=167|49=SELL_SIDE_M9E7|56=BUY_SIDE_KU3Q|52=20251017-22:18:34.105|11=FEFUTHROLJ|55=NQZ5|39=0|150=0|14=2685|151=3131|17=83M26BFGABDI|37=6KPYRC4KCH|60=20251017-22:18:34.105|31=165.34|32=2270|10=016|8=FIX.4.4|9=120|35=X|34=162|49=SELL_SIDE_ZE6W|56=BUY_SIDE_NXG1|52=20251017-22:18:34.155|268=1|269=0|279=2|55=ETHUSD|270=162.24|271=4488|10=025|8=FIX.4.4|9=195|35=8|34=146|49=SELL_SIDE_WH3P|56=BUY_SIDE_ZZTB|52=20251017-22:18:34.205|11=3P745ZIWIF|55=META|39=0|150=0|14=1802|151=1200|17=HJ7V7KP71IVZ|37=3ZVB7SMIWF|60=20251017-22:18:34.205|31=266.51|32=4238|10=101|8=FIX.4.4|9=176|35=8|34=147|49=SELL_SIDE_WH3P|56=BUY_SIDE_ZZTB|52=20251017-22:18:34.255|11=O6GV0VPQ0M|55=NVDA|39=1|150=1|14=3391|151=506|17=A3CPW7S9Q29Y|37=B536TFXPOY|60=20251017-22:18:34.255|10=238|8=FIX.4.4|9=144|35=D|34=148|49=BUY_SIDE_ZZTB|56=SELL_SIDE_WH3P|52=20251017-22:18:34.305|11=99TAW8CEC4|55=ETHUSD|54=1|38=4453|40=3|59=1|60=20251017-22:18:34.305|10=083|8=FIX.4.4|9=177|35=8|34=149|49=SELL_SIDE_YXTZ|56=BUY_SIDE_8XKV|52=20251017-22:18:34.355|11=JBX8U8KJIE|55=AAPL|39=0|150=0|14=3831|151=2813|17=AY8RL6L8KSLB|37=XL8MUNHEBX|60=20251017-22:18:34.355|10=139|8=FIX.4.4|9=195|35=8|34=149|49=SELL_SIDE_WH3P|56=BUY_SIDE_ZZTB|52=20251017-22:18:34.405|11=S9KGKWHGD4|55=CLX5|39=0|150=0|14=2778|151=2575|17=583V8F0O3BS2|37=L3FVKKQEMA|60=20251017-22:18:34.405|31=415.24|32=1338|10=033|8=FIX.4.4|9=152|35=D|34=168|49=BUY_SIDE_KU3Q|56=SELL_SIDE_M9E7|52=20251017-22:18:34.455|11=ZRDUW8QLUD|55=TSLA|54=1|38=4667|40=2|59=3|60=20251017-22:18:34.455|44=493.48|10=222|8=FIX.4.4|9=152|35=D|34=163|49=BUY_SIDE_NXG1|56=SELL_SIDE_ZE6W|52=20251017-22:18:34.505|11=BHY7DV8J6D|55=AMZN|54=2|38=2498|40=3|59=4|60=20251017-22:18:34.505|44=409.23|10=150|8=FIX.4.4|9=138|35=F|34=150|49=BUY_SIDE_ZZTB|56=SELL_SIDE_WH3P|52=20251017-22:18:34.555|11=KDZQ7MKA9B|41=CTPF78V9Q2|55=CLX5|54=2|60=20251017-22:18:34.555|10=005|8=FIX.4.4|9=72|35=0|34=151|49=BU